{
  "contractName": "CryptoVideoGameItem",
  "abi": [
    {
      "constant": true,
      "inputs": [],
      "name": "GetGamestatus",
      "outputs": [
        {
          "name": "",
          "type": "bool"
        }
      ],
      "payable": false,
      "stateMutability": "view",
      "type": "function"
    },
    {
      "constant": true,
      "inputs": [
        {
          "name": "_videoGameItemId",
          "type": "uint256"
        }
      ],
      "name": "getVideoGameItemCurrentPrice",
      "outputs": [
        {
          "name": "",
          "type": "uint256"
        }
      ],
      "payable": false,
      "stateMutability": "view",
      "type": "function"
    },
    {
      "constant": true,
      "inputs": [
        {
          "name": "_videoGameItemId",
          "type": "uint256"
        }
      ],
      "name": "getVideoGameItemOwner",
      "outputs": [
        {
          "name": "",
          "type": "address"
        }
      ],
      "payable": false,
      "stateMutability": "view",
      "type": "function"
    },
    {
      "constant": false,
      "inputs": [
        {
          "name": "_videoGameItemId",
          "type": "uint256"
        }
      ],
      "name": "purchaseVideoGameItem",
      "outputs": [],
      "payable": true,
      "stateMutability": "payable",
      "type": "function"
    },
    {
      "constant": false,
      "inputs": [],
      "name": "pauseGame",
      "outputs": [],
      "payable": false,
      "stateMutability": "nonpayable",
      "type": "function"
    },
    {
      "constant": false,
      "inputs": [
        {
          "name": "videoGameItemName",
          "type": "string"
        },
        {
          "name": "ownerAddress",
          "type": "address"
        },
        {
          "name": "currentPrice",
          "type": "uint256"
        },
        {
          "name": "parentVideoGame",
          "type": "uint256"
        }
      ],
      "name": "addVideoGameItem",
      "outputs": [],
      "payable": false,
      "stateMutability": "nonpayable",
      "type": "function"
    },
    {
      "constant": false,
      "inputs": [
        {
          "name": "_videoGameItemId",
          "type": "uint256"
        },
        {
          "name": "_newPrice",
          "type": "uint256"
        }
      ],
      "name": "modifyCurrentVideoGameItemPrice",
      "outputs": [],
      "payable": false,
      "stateMutability": "nonpayable",
      "type": "function"
    },
    {
      "constant": true,
      "inputs": [
        {
          "name": "_videoGameItemId",
          "type": "uint256"
        }
      ],
      "name": "getVideoGameItemDetails",
      "outputs": [
        {
          "name": "videoGameItemName",
          "type": "string"
        },
        {
          "name": "ownerAddress",
          "type": "address"
        },
        {
          "name": "currentPrice",
          "type": "uint256"
        },
        {
          "name": "parentVideoGame",
          "type": "uint256"
        }
      ],
      "payable": false,
      "stateMutability": "view",
      "type": "function"
    },
    {
      "constant": false,
      "inputs": [],
      "name": "unPauseGame",
      "outputs": [],
      "payable": false,
      "stateMutability": "nonpayable",
      "type": "function"
    }
  ],
  "bytecode": "0x6060604052731fbadb3a6526389df1a6b52a1a91bec1b8052bec6000806101000a81548173ffffffffffffffffffffffffffffffffffffffff021916908373ffffffffffffffffffffffffffffffffffffffff160217905550731fbadb3a6526389df1a6b52a1a91bec1b8052bec600160006101000a81548173ffffffffffffffffffffffffffffffffffffffff021916908373ffffffffffffffffffffffffffffffffffffffff1602179055507398069621fd7dadb3f2d862b78a4f7d22eb08a80a600260006101000a81548173ffffffffffffffffffffffffffffffffffffffff021916908373ffffffffffffffffffffffffffffffffffffffff160217905550341561010d57600080fd5b610e408061011c6000396000f300606060405260043610610099576000357c0100000000000000000000000000000000000000000000000000000000900463ffffffff16806306b2e6071461009e5780630f0a09a0146100cb578063337176cd1461010257806342b0b0c414610165578063499831f21461017d57806372e4f1c114610192578063ad0ffd1c14610220578063b959a0e51461024c578063f42b1ae014610329575b600080fd5b34156100a957600080fd5b6100b161033e565b604051808215151515815260200191505060405180910390f35b34156100d657600080fd5b6100ec6004808035906020019091905050610355565b6040518082815260200191505060405180910390f35b341561010d57600080fd5b610123600480803590602001909190505061037f565b604051808273ffffffffffffffffffffffffffffffffffffffff1673ffffffffffffffffffffffffffffffffffffffff16815260200191505060405180910390f35b61017b60048080359060200190919050506103c9565b005b341561018857600080fd5b61019061076a565b005b341561019d57600080fd5b61021e600480803590602001908201803590602001908080601f0160208091040260200160405190810160405280939291908181526020018383808284378201915050505050509190803573ffffffffffffffffffffffffffffffffffffffff169060200190919080359060200190919080359060200190919050506107e2565b005b341561022b57600080fd5b61024a600480803590602001909190803590602001909190505061091f565b005b341561025757600080fd5b61026d60048080359060200190919050506109ff565b60405180806020018573ffffffffffffffffffffffffffffffffffffffff1673ffffffffffffffffffffffffffffffffffffffff168152602001848152602001838152602001828103825286818151815260200191508051906020019080838360005b838110156102eb5780820151818401526020810190506102d0565b50505050905090810190601f1680156103185780820380516001836020036101000a031916815260200191505b509550505050505060405180910390f35b341561033457600080fd5b61033c610b6f565b005b6000600460009054906101000a900460ff16905090565b600060038281548110151561036657fe5b9060005260206000209060040201600201549050919050565b600060038281548110151561039057fe5b906000526020600020906004020160010160009054906101000a900473ffffffffffffffffffffffffffffffffffffffff169050919050565b6000806000806000806000806003898154811015156103e457fe5b906000526020600020906004020160020154341015151561040457600080fd5b60001515600460009054906101000a900460ff16151514151561042657600080fd5b600260009054906101000a900473ffffffffffffffffffffffffffffffffffffffff16975060038981548110151561045a57fe5b90600052602060002090600402016002015496508634039550600a8781151561047f57fe5b049450600a8781151561048e57fe5b0493508773ffffffffffffffffffffffffffffffffffffffff1663ab22a64060038b8154811015156104bc57fe5b9060005260206000209060040201600301546000604051602001526040518263ffffffff167c010000000000000000000000000000000000000000000000000000000002815260040180828152602001915050602060405180830381600087803b151561052857600080fd5b6102c65a03f1151561053957600080fd5b5050506040518051905092503391508385880303905060038981548110151561055e57fe5b906000526020600020906004020160010160009054906101000a900473ffffffffffffffffffffffffffffffffffffffff1673ffffffffffffffffffffffffffffffffffffffff166108fc829081150290604051600060405180830381858888f1935050505015156105cf57600080fd5b600160009054906101000a900473ffffffffffffffffffffffffffffffffffffffff1673ffffffffffffffffffffffffffffffffffffffff166108fc869081150290604051600060405180830381858888f19350505050151561063157600080fd5b8273ffffffffffffffffffffffffffffffffffffffff166108fc859081150290604051600060405180830381858888f19350505050151561067157600080fd5b8173ffffffffffffffffffffffffffffffffffffffff166108fc879081150290604051600060405180830381858888f1935050505015156106b157600080fd5b8160038a8154811015156106c157fe5b906000526020600020906004020160010160006101000a81548173ffffffffffffffffffffffffffffffffffffffff021916908373ffffffffffffffffffffffffffffffffffffffff16021790555061073b60038a81548110151561072257fe5b9060005260206000209060040201600201546002610be7565b60038a81548110151561074a57fe5b906000526020600020906004020160020181905550505050505050505050565b6000809054906101000a900473ffffffffffffffffffffffffffffffffffffffff1673ffffffffffffffffffffffffffffffffffffffff163373ffffffffffffffffffffffffffffffffffffffff161415156107c557600080fd5b6001600460006101000a81548160ff021916908315150217905550565b6000809054906101000a900473ffffffffffffffffffffffffffffffffffffffff1673ffffffffffffffffffffffffffffffffffffffff163373ffffffffffffffffffffffffffffffffffffffff1614151561083d57600080fd5b600380548060010182816108519190610c22565b916000526020600020906004020160006080604051908101604052808881526020018773ffffffffffffffffffffffffffffffffffffffff16815260200186815260200185815250909190915060008201518160000190805190602001906108ba929190610c54565b5060208201518160010160006101000a81548173ffffffffffffffffffffffffffffffffffffffff021916908373ffffffffffffffffffffffffffffffffffffffff160217905550604082015181600201556060820151816003015550505050505050565b60008111151561092e57600080fd5b3373ffffffffffffffffffffffffffffffffffffffff1660038381548110151561095457fe5b906000526020600020906004020160010160009054906101000a900473ffffffffffffffffffffffffffffffffffffffff1673ffffffffffffffffffffffffffffffffffffffff161415156109a857600080fd5b6003828154811015156109b757fe5b906000526020600020906004020160020154811015156109d657600080fd5b806003838154811015156109e657fe5b9060005260206000209060040201600201819055505050565b610a07610cd4565b6000806000610a14610ce8565b600386815481101515610a2357fe5b906000526020600020906004020160806040519081016040529081600082018054600181600116156101000203166002900480601f016020809104026020016040519081016040528092919081815260200182805460018160011615610100020316600290048015610ad65780601f10610aab57610100808354040283529160200191610ad6565b820191906000526020600020905b815481529060010190602001808311610ab957829003601f168201915b505050505081526020016001820160009054906101000a900473ffffffffffffffffffffffffffffffffffffffff1673ffffffffffffffffffffffffffffffffffffffff1673ffffffffffffffffffffffffffffffffffffffff16815260200160028201548152602001600382015481525050905080600001519450806020015193508060400151925080606001519150509193509193565b6000809054906101000a900473ffffffffffffffffffffffffffffffffffffffff1673ffffffffffffffffffffffffffffffffffffffff163373ffffffffffffffffffffffffffffffffffffffff16141515610bca57600080fd5b6000600460006101000a81548160ff021916908315150217905550565b6000806000841415610bfc5760009150610c1b565b8284029050828482811515610c0d57fe5b04141515610c1757fe5b8091505b5092915050565b815481835581811511610c4f57600402816004028360005260206000209182019101610c4e9190610d2d565b5b505050565b828054600181600116156101000203166002900490600052602060002090601f016020900481019282601f10610c9557805160ff1916838001178555610cc3565b82800160010185558215610cc3579182015b82811115610cc2578251825591602001919060010190610ca7565b5b509050610cd09190610d93565b5090565b602060405190810160405280600081525090565b608060405190810160405280610cfc610db8565b8152602001600073ffffffffffffffffffffffffffffffffffffffff16815260200160008152602001600081525090565b610d9091905b80821115610d8c5760008082016000610d4c9190610dcc565b6001820160006101000a81549073ffffffffffffffffffffffffffffffffffffffff02191690556002820160009055600382016000905550600401610d33565b5090565b90565b610db591905b80821115610db1576000816000905550600101610d99565b5090565b90565b602060405190810160405280600081525090565b50805460018160011615610100020316600290046000825580601f10610df25750610e11565b601f016020900490600052602060002090810190610e109190610d93565b5b505600a165627a7a723058208ca0f34309300ee3176f03d97d5dfe1a8bd15f33b4ba9225cbed1b00a8d1f8510029",
  "source": "pragma solidity ^0.4.18;\n\ncontract CryptoVideoGameItem {\n\n    address contractCreator = 0x1fBAdB3A6526389df1A6b52A1a91BEc1B8052BEc; \n    address devFeeAddress = 0x1fBAdB3A6526389df1A6b52A1a91BEc1B8052BEc;\n\n    address cryptoVideoGames = 0x98069621Fd7daDb3f2D862b78a4f7D22eB08A80a; \n\n    struct VideoGameItem {\n        string videoGameItemName;\n        address ownerAddress;\n        uint256 currentPrice;\n        uint parentVideoGame;\n    }\n    VideoGameItem[] videoGameItems;\n\n    modifier onlyContractCreator() {\n        require (msg.sender == contractCreator);\n        _;\n    }\n\n    bool isPaused;\n    \n    \n    /*\n    We use the following functions to pause and unpause the game.\n    */\n    function pauseGame() public onlyContractCreator {\n        isPaused = true;\n    }\n    function unPauseGame() public onlyContractCreator {\n        isPaused = false;\n    }\n    function GetGamestatus() public view returns(bool) {\n       return(isPaused);\n    }\n\n    /*\n    This function allows users to purchase Video Game Item. \n    The price is automatically multiplied by 2 after each purchase.\n    Users can purchase multiple video game Items.\n    */\n    function purchaseVideoGameItem(uint _videoGameItemId) public payable {\n        require(msg.value >= videoGameItems[_videoGameItemId].currentPrice);\n        require(isPaused == false);\n\n        CryptoVideoGames parentContract = CryptoVideoGames(cryptoVideoGames);\n        uint256 currentPrice = videoGameItems[_videoGameItemId].currentPrice;\n        uint256 excess = msg.value - currentPrice;\n        // Calculate the 10% value\n        uint256 devFee = (currentPrice / 10);\n        uint256 parentOwnerFee = (currentPrice / 10);\n\n        address parentOwner = parentContract.getVideoGameOwner(videoGameItems[_videoGameItemId].parentVideoGame);\n        address newOwner = msg.sender;\n        // Calculate the video game owner commission on this sale & transfer the commission to the owner.     \n        uint256 commissionOwner = currentPrice - devFee - parentOwnerFee; // => 80%\n        videoGameItems[_videoGameItemId].ownerAddress.transfer(commissionOwner);\n\n        // Transfer the 10% commission to the developer\n        devFeeAddress.transfer(devFee); // => 10% \n        parentOwner.transfer(parentOwnerFee); // => 10%   \n        newOwner.transfer(excess);              \n\n        // Update the video game owner and set the new price\n        videoGameItems[_videoGameItemId].ownerAddress = newOwner;\n        videoGameItems[_videoGameItemId].currentPrice = mul(videoGameItems[_videoGameItemId].currentPrice, 2);\n    }\n    \n    /*\n    This function can be used by the owner of a video game item to modify the price of its video game item.\n    He can make the price lesser than the current price only.\n    */\n    function modifyCurrentVideoGameItemPrice(uint _videoGameItemId, uint256 _newPrice) public {\n        require(_newPrice > 0);\n        require(videoGameItems[_videoGameItemId].ownerAddress == msg.sender);\n        require(_newPrice < videoGameItems[_videoGameItemId].currentPrice);\n        videoGameItems[_videoGameItemId].currentPrice = _newPrice;\n    }\n    \n    // This function will return all of the details of the Video Game Item\n    function getVideoGameItemDetails(uint _videoGameItemId) public view returns (\n        string videoGameItemName,\n        address ownerAddress,\n        uint256 currentPrice,\n        uint parentVideoGame\n    ) {\n        VideoGameItem memory _videoGameItem = videoGameItems[_videoGameItemId];\n\n        videoGameItemName = _videoGameItem.videoGameItemName;\n        ownerAddress = _videoGameItem.ownerAddress;\n        currentPrice = _videoGameItem.currentPrice;\n        parentVideoGame = _videoGameItem.parentVideoGame;\n    }\n    \n    // This function will return only the price of a specific Video Game Item\n    function getVideoGameItemCurrentPrice(uint _videoGameItemId) public view returns(uint256) {\n        return(videoGameItems[_videoGameItemId].currentPrice);\n    }\n    \n    // This function will return only the owner address of a specific Video Game\n    function getVideoGameItemOwner(uint _videoGameItemId) public view returns(address) {\n        return(videoGameItems[_videoGameItemId].ownerAddress);\n    }\n    \n    \n    /**\n    @dev Multiplies two numbers, throws on overflow. => From the SafeMath library\n    */\n    function mul(uint256 a, uint256 b) internal pure returns (uint256) {\n        if (a == 0) {\n          return 0;\n        }\n        uint256 c = a * b;\n        assert(c / a == b);\n        return c;\n    }\n\n    /**\n    @dev Integer division of two numbers, truncating the quotient. => From the SafeMath library\n    */\n    function div(uint256 a, uint256 b) internal pure returns (uint256) {\n        // assert(b > 0); // Solidity automatically throws when dividing by 0\n        uint256 c = a / b;\n        // assert(a == b * c + a % b); // There is no case in which this doesn't hold\n        return c;\n    }\n    \n    // This function will be used to add a new video game by the contract creator\n    function addVideoGameItem(string videoGameItemName, address ownerAddress, uint256 currentPrice, uint parentVideoGame) public onlyContractCreator {\n        videoGameItems.push(VideoGameItem(videoGameItemName,ownerAddress,currentPrice, parentVideoGame));\n    }\n    \n}\n\n\n\ncontract CryptoVideoGames {\n    \n    \n    \n    // This function will return only the owner address of a specific Video Game\n    function getVideoGameOwner(uint _videoGameId) public view returns(address) {\n    }\n    \n}",
  "sourcePath": "/Users/itru/Desktop/cryptoworkspace/cryptovideogame/truffle/contracts/ChildVideoGameItem.sol",
  "compiler": {
    "name": "solc",
    "version": "0.4.18+commit.9cf6e910.Emscripten.clang"
  },
  "schemaVersion": "1.0.1",
  "updatedAt": "2018-02-27T10:02:35.057Z"
}