{
  "contractName": "CryptoVideoGames",
  "abi": [
    {
      "constant": true,
      "inputs": [],
      "name": "GetGamestatus",
      "outputs": [
        {
          "name": "",
          "type": "bool"
        }
      ],
      "payable": false,
      "stateMutability": "view",
      "type": "function"
    },
    {
      "constant": true,
      "inputs": [
        {
          "name": "_videoGameId",
          "type": "uint256"
        }
      ],
      "name": "getVideoGameDetails",
      "outputs": [
        {
          "name": "videoGameName",
          "type": "string"
        },
        {
          "name": "ownerAddress",
          "type": "address"
        },
        {
          "name": "currentPrice",
          "type": "uint256"
        }
      ],
      "payable": false,
      "stateMutability": "view",
      "type": "function"
    },
    {
      "constant": false,
      "inputs": [
        {
          "name": "videoGameName",
          "type": "string"
        },
        {
          "name": "ownerAddress",
          "type": "address"
        },
        {
          "name": "currentPrice",
          "type": "uint256"
        }
      ],
      "name": "addVideoGame",
      "outputs": [],
      "payable": false,
      "stateMutability": "nonpayable",
      "type": "function"
    },
    {
      "constant": false,
      "inputs": [
        {
          "name": "_videoGameId",
          "type": "uint256"
        }
      ],
      "name": "purchaseVideoGame",
      "outputs": [],
      "payable": true,
      "stateMutability": "payable",
      "type": "function"
    },
    {
      "constant": false,
      "inputs": [],
      "name": "pauseGame",
      "outputs": [],
      "payable": false,
      "stateMutability": "nonpayable",
      "type": "function"
    },
    {
      "constant": false,
      "inputs": [
        {
          "name": "_videoGameId",
          "type": "uint256"
        },
        {
          "name": "_newPrice",
          "type": "uint256"
        }
      ],
      "name": "modifyCurrentVideoGamePrice",
      "outputs": [],
      "payable": false,
      "stateMutability": "nonpayable",
      "type": "function"
    },
    {
      "constant": true,
      "inputs": [
        {
          "name": "_videoGameId",
          "type": "uint256"
        }
      ],
      "name": "getVideoGameOwner",
      "outputs": [
        {
          "name": "",
          "type": "address"
        }
      ],
      "payable": false,
      "stateMutability": "view",
      "type": "function"
    },
    {
      "constant": true,
      "inputs": [
        {
          "name": "_videoGameId",
          "type": "uint256"
        }
      ],
      "name": "getVideoGameCurrentPrice",
      "outputs": [
        {
          "name": "",
          "type": "uint256"
        }
      ],
      "payable": false,
      "stateMutability": "view",
      "type": "function"
    },
    {
      "constant": false,
      "inputs": [],
      "name": "unPauseGame",
      "outputs": [],
      "payable": false,
      "stateMutability": "nonpayable",
      "type": "function"
    }
  ],
  "bytecode": "0x60606040527323b385c822381be63c9f45a3e45266dd32d52c436000806101000a81548173ffffffffffffffffffffffffffffffffffffffff021916908373ffffffffffffffffffffffffffffffffffffffff160217905550733bdc0d871731d08d1c1c793735372ab16397cd61600160006101000a81548173ffffffffffffffffffffffffffffffffffffffff021916908373ffffffffffffffffffffffffffffffffffffffff16021790555034156100b857600080fd5b610baa806100c76000396000f300606060405260043610610099576000357c0100000000000000000000000000000000000000000000000000000000900463ffffffff16806306b2e6071461009e57806309e76161146100cb5780631a994fd2146101a157806322b0818014610226578063499831f21461023e5780636185141614610253578063ab22a6401461027f578063e5dc476f146102e2578063f42b1ae014610319575b600080fd5b34156100a957600080fd5b6100b161032e565b604051808215151515815260200191505060405180910390f35b34156100d657600080fd5b6100ec6004808035906020019091905050610345565b60405180806020018473ffffffffffffffffffffffffffffffffffffffff1673ffffffffffffffffffffffffffffffffffffffff168152602001838152602001828103825285818151815260200191508051906020019080838360005b83811015610164578082015181840152602081019050610149565b50505050905090810190601f1680156101915780820380516001836020036101000a031916815260200191505b5094505050505060405180910390f35b34156101ac57600080fd5b610224600480803590602001908201803590602001908080601f0160208091040260200160405190810160405280939291908181526020018383808284378201915050505050509190803573ffffffffffffffffffffffffffffffffffffffff16906020019091908035906020019091905050610446565b005b61023c6004808035906020019091905050610572565b005b341561024957600080fd5b61025161076e565b005b341561025e57600080fd5b61027d60048080359060200190919080359060200190919050506107e6565b005b341561028a57600080fd5b6102a060048080359060200190919050506108c6565b604051808273ffffffffffffffffffffffffffffffffffffffff1673ffffffffffffffffffffffffffffffffffffffff16815260200191505060405180910390f35b34156102ed57600080fd5b6103036004808035906020019091905050610910565b6040518082815260200191505060405180910390f35b341561032457600080fd5b61032c61093a565b005b6000600360009054906101000a900460ff16905090565b61034d6109ed565b600080600060028581548110151561036157fe5b90600052602060002090600302019050806000018054600181600116156101000203166002900480601f0160208091040260200160405190810160405280929190818152602001828054600181600116156101000203166002900480156104095780601f106103de57610100808354040283529160200191610409565b820191906000526020600020905b8154815290600101906020018083116103ec57829003601f168201915b505050505093508060010160009054906101000a900473ffffffffffffffffffffffffffffffffffffffff16925080600201549150509193909250565b6000809054906101000a900473ffffffffffffffffffffffffffffffffffffffff1673ffffffffffffffffffffffffffffffffffffffff163373ffffffffffffffffffffffffffffffffffffffff161415156104a157600080fd5b600280548060010182816104b59190610a01565b916000526020600020906003020160006060604051908101604052808781526020018673ffffffffffffffffffffffffffffffffffffffff1681526020018581525090919091506000820151816000019080519060200190610518929190610a33565b5060208201518160010160006101000a81548173ffffffffffffffffffffffffffffffffffffffff021916908373ffffffffffffffffffffffffffffffffffffffff16021790555060408201518160020155505050505050565b60008060028381548110151561058457fe5b906000526020600020906003020160020154341415156105a357600080fd5b60001515600360009054906101000a900460ff1615151415156105c557600080fd5b600a348115156105d157fe5b04915081340390506002838154811015156105e857fe5b906000526020600020906003020160010160009054906101000a900473ffffffffffffffffffffffffffffffffffffffff1673ffffffffffffffffffffffffffffffffffffffff166108fc829081150290604051600060405180830381858888f19350505050151561065957600080fd5b600160009054906101000a900473ffffffffffffffffffffffffffffffffffffffff1673ffffffffffffffffffffffffffffffffffffffff166108fc839081150290604051600060405180830381858888f1935050505015156106bb57600080fd5b336002848154811015156106cb57fe5b906000526020600020906003020160010160006101000a81548173ffffffffffffffffffffffffffffffffffffffff021916908373ffffffffffffffffffffffffffffffffffffffff16021790555061074560028481548110151561072c57fe5b90600052602060002090600302016002015460026109b2565b60028481548110151561075457fe5b906000526020600020906003020160020181905550505050565b6000809054906101000a900473ffffffffffffffffffffffffffffffffffffffff1673ffffffffffffffffffffffffffffffffffffffff163373ffffffffffffffffffffffffffffffffffffffff161415156107c957600080fd5b6001600360006101000a81548160ff021916908315150217905550565b6000811115156107f557600080fd5b3373ffffffffffffffffffffffffffffffffffffffff1660028381548110151561081b57fe5b906000526020600020906003020160010160009054906101000a900473ffffffffffffffffffffffffffffffffffffffff1673ffffffffffffffffffffffffffffffffffffffff1614151561086f57600080fd5b60028281548110151561087e57fe5b9060005260206000209060030201600201548110151561089d57600080fd5b806002838154811015156108ad57fe5b9060005260206000209060030201600201819055505050565b60006002828154811015156108d757fe5b906000526020600020906003020160010160009054906101000a900473ffffffffffffffffffffffffffffffffffffffff169050919050565b600060028281548110151561092157fe5b9060005260206000209060030201600201549050919050565b6000809054906101000a900473ffffffffffffffffffffffffffffffffffffffff1673ffffffffffffffffffffffffffffffffffffffff163373ffffffffffffffffffffffffffffffffffffffff1614151561099557600080fd5b6000600360006101000a81548160ff021916908315150217905550565b60008060008414156109c757600091506109e6565b82840290508284828115156109d857fe5b041415156109e257fe5b8091505b5092915050565b602060405190810160405280600081525090565b815481835581811511610a2e57600302816003028360005260206000209182019101610a2d9190610ab3565b5b505050565b828054600181600116156101000203166002900490600052602060002090601f016020900481019282601f10610a7457805160ff1916838001178555610aa2565b82800160010185558215610aa2579182015b82811115610aa1578251825591602001919060010190610a86565b5b509050610aaf9190610b11565b5090565b610b0e91905b80821115610b0a5760008082016000610ad29190610b36565b6001820160006101000a81549073ffffffffffffffffffffffffffffffffffffffff0219169055600282016000905550600301610ab9565b5090565b90565b610b3391905b80821115610b2f576000816000905550600101610b17565b5090565b90565b50805460018160011615610100020316600290046000825580601f10610b5c5750610b7b565b601f016020900490600052602060002090810190610b7a9190610b11565b5b505600a165627a7a72305820f04d276a5acb62a3534b2dc96203a7133ef663051e6152f3ac5a30d453988a1b0029",
  "source": "pragma solidity ^0.4.18;\n\ncontract CryptoVideoGames {\n\n    address contractCreator = 0x23B385c822381BE63C9f45a3E45266DD32D52c43;\n    address devFeeAddress = 0x3bdC0D871731D08D1c1c793735372AB16397Cd61;\n\n    struct VideoGame {\n        string videoGameName;\n        address ownerAddress;\n        uint256 currentPrice;\n    }\n    VideoGame[] videoGames;\n\n    modifier onlyContractCreator() {\n        require (msg.sender == contractCreator);\n        _;\n    }\n\n    bool isPaused;\n    \n    \n    /*\n    We use the following functions to pause and unpause the game.\n    */\n    function pauseGame() public onlyContractCreator {\n        isPaused = true;\n    }\n    function unPauseGame() public onlyContractCreator {\n        isPaused = false;\n    }\n    function GetGamestatus() public view returns(bool) {\n       return(isPaused);\n    }\n\n    /*\n    This function allows users to purchase Video Game. \n    The price is automatically multiplied by 2 after each purchase.\n    Users can purchase multiple video games.\n    */\n    function purchaseVideoGame(uint _videoGameId) public payable {\n        require(msg.value == videoGames[_videoGameId].currentPrice);\n        require(isPaused == false);\n\n        // Calculate the 10% value\n        uint256 devFee = (msg.value / 10);\n\n        // Calculate the video game owner commission on this sale & transfer the commission to the owner.     \n        uint256 commissionOwner = msg.value - devFee; // => 90%\n        videoGames[_videoGameId].ownerAddress.transfer(commissionOwner);\n\n        // Transfer the 10% commission to the developer\n        devFeeAddress.transfer(devFee); // => 10%                       \n\n        // Update the video game owner and set the new price\n        videoGames[_videoGameId].ownerAddress = msg.sender;\n        videoGames[_videoGameId].currentPrice = mul(videoGames[_videoGameId].currentPrice, 2);\n    }\n    \n    /*\n    This function can be used by the owner of a video game to modify the price of its video game.\n    He can make the price lesser than the current price only.\n    */\n    function modifyCurrentVideoGamePrice(uint _videoGameId, uint256 _newPrice) public {\n        require(_newPrice > 0);\n        require(videoGames[_videoGameId].ownerAddress == msg.sender);\n        require(_newPrice < videoGames[_videoGameId].currentPrice);\n        videoGames[_videoGameId].currentPrice = _newPrice;\n    }\n    \n    // This function will return all of the details of the Video Games\n    function getVideoGameDetails(uint _videoGameId) public view returns (\n        string videoGameName,\n        address ownerAddress,\n        uint256 currentPrice\n    ) {\n        VideoGame storage _videoGame = videoGames[_videoGameId];\n\n        videoGameName = _videoGame.videoGameName;\n        ownerAddress = _videoGame.ownerAddress;\n        currentPrice = _videoGame.currentPrice;\n    }\n    \n    // This function will return only the price of a specific Video Game\n    function getVideoGameCurrentPrice(uint _videoGameId) public view returns(uint256) {\n        return(videoGames[_videoGameId].currentPrice);\n    }\n    \n    // This function will return only the owner address of a specific Video Game\n    function getVideoGameOwner(uint _videoGameId) public view returns(address) {\n        return(videoGames[_videoGameId].ownerAddress);\n    }\n    \n    \n    /**\n    @dev Multiplies two numbers, throws on overflow. => From the SafeMath library\n    */\n    function mul(uint256 a, uint256 b) internal pure returns (uint256) {\n        if (a == 0) {\n          return 0;\n        }\n        uint256 c = a * b;\n        assert(c / a == b);\n        return c;\n    }\n\n    /**\n    @dev Integer division of two numbers, truncating the quotient. => From the SafeMath library\n    */\n    function div(uint256 a, uint256 b) internal pure returns (uint256) {\n        // assert(b > 0); // Solidity automatically throws when dividing by 0\n        uint256 c = a / b;\n        // assert(a == b * c + a % b); // There is no case in which this doesn't hold\n        return c;\n    }\n    \n    // This function will be used to add a new video game by the contract creator\n    function addVideoGame(string videoGameName, address ownerAddress, uint256 currentPrice) public onlyContractCreator {\n        videoGames.push(VideoGame(videoGameName,ownerAddress,currentPrice));\n    }\n    \n}",
  "sourcePath": "/Users/itru/Desktop/cryptoworkspace/cryptovideogames/contracts/CryptoVideoGames.sol",
  "compiler": {
    "name": "solc",
    "version": "0.4.18+commit.9cf6e910.Emscripten.clang"
  },
  "schemaVersion": "1.0.1",
  "updatedAt": "2018-02-25T10:49:37.641Z"
}