{
  "contractName": "GameItemNew",
  "abi": [
    {
      "constant": true,
      "inputs": [],
      "name": "promoCreatedCount",
      "outputs": [
        {
          "name": "",
          "type": "uint256"
        }
      ],
      "payable": false,
      "stateMutability": "view",
      "type": "function"
    },
    {
      "constant": true,
      "inputs": [],
      "name": "name",
      "outputs": [
        {
          "name": "",
          "type": "string"
        }
      ],
      "payable": false,
      "stateMutability": "pure",
      "type": "function"
    },
    {
      "constant": false,
      "inputs": [
        {
          "name": "_to",
          "type": "address"
        },
        {
          "name": "_tokenId",
          "type": "uint256"
        }
      ],
      "name": "approve",
      "outputs": [],
      "payable": false,
      "stateMutability": "nonpayable",
      "type": "function"
    },
    {
      "constant": true,
      "inputs": [],
      "name": "ceoAddress",
      "outputs": [
        {
          "name": "",
          "type": "address"
        }
      ],
      "payable": false,
      "stateMutability": "view",
      "type": "function"
    },
    {
      "constant": false,
      "inputs": [
        {
          "name": "_to",
          "type": "address"
        }
      ],
      "name": "payout",
      "outputs": [],
      "payable": false,
      "stateMutability": "nonpayable",
      "type": "function"
    },
    {
      "constant": true,
      "inputs": [],
      "name": "implementsERC721",
      "outputs": [
        {
          "name": "",
          "type": "bool"
        }
      ],
      "payable": false,
      "stateMutability": "pure",
      "type": "function"
    },
    {
      "constant": true,
      "inputs": [],
      "name": "totalSupply",
      "outputs": [
        {
          "name": "total",
          "type": "uint256"
        }
      ],
      "payable": false,
      "stateMutability": "view",
      "type": "function"
    },
    {
      "constant": false,
      "inputs": [
        {
          "name": "_from",
          "type": "address"
        },
        {
          "name": "_to",
          "type": "address"
        },
        {
          "name": "_tokenId",
          "type": "uint256"
        }
      ],
      "name": "transferFrom",
      "outputs": [],
      "payable": false,
      "stateMutability": "nonpayable",
      "type": "function"
    },
    {
      "constant": false,
      "inputs": [
        {
          "name": "_newCEO",
          "type": "address"
        }
      ],
      "name": "setCEO",
      "outputs": [],
      "payable": false,
      "stateMutability": "nonpayable",
      "type": "function"
    },
    {
      "constant": false,
      "inputs": [
        {
          "name": "_newCOO",
          "type": "address"
        }
      ],
      "name": "setCOO",
      "outputs": [],
      "payable": false,
      "stateMutability": "nonpayable",
      "type": "function"
    },
    {
      "constant": true,
      "inputs": [
        {
          "name": "",
          "type": "uint256"
        }
      ],
      "name": "gameItemIndexToOwner",
      "outputs": [
        {
          "name": "",
          "type": "address"
        }
      ],
      "payable": false,
      "stateMutability": "view",
      "type": "function"
    },
    {
      "constant": false,
      "inputs": [
        {
          "name": "_name",
          "type": "string"
        },
        {
          "name": "_gameId",
          "type": "uint256"
        }
      ],
      "name": "createContractGameItem",
      "outputs": [],
      "payable": false,
      "stateMutability": "nonpayable",
      "type": "function"
    },
    {
      "constant": true,
      "inputs": [
        {
          "name": "_tokenId",
          "type": "uint256"
        }
      ],
      "name": "ownerOf",
      "outputs": [
        {
          "name": "owner",
          "type": "address"
        }
      ],
      "payable": false,
      "stateMutability": "view",
      "type": "function"
    },
    {
      "constant": false,
      "inputs": [
        {
          "name": "_gameItemId",
          "type": "uint256"
        },
        {
          "name": "_newPrice",
          "type": "uint256"
        }
      ],
      "name": "modifyGameItemPrice",
      "outputs": [],
      "payable": false,
      "stateMutability": "nonpayable",
      "type": "function"
    },
    {
      "constant": true,
      "inputs": [
        {
          "name": "_owner",
          "type": "address"
        }
      ],
      "name": "balanceOf",
      "outputs": [
        {
          "name": "balance",
          "type": "uint256"
        }
      ],
      "payable": false,
      "stateMutability": "view",
      "type": "function"
    },
    {
      "constant": true,
      "inputs": [
        {
          "name": "_owner",
          "type": "address"
        }
      ],
      "name": "tokensOfOwner",
      "outputs": [
        {
          "name": "ownerTokens",
          "type": "uint256[]"
        }
      ],
      "payable": false,
      "stateMutability": "view",
      "type": "function"
    },
    {
      "constant": true,
      "inputs": [
        {
          "name": "_tokenId",
          "type": "uint256"
        }
      ],
      "name": "getGameItem",
      "outputs": [
        {
          "name": "Id",
          "type": "uint256"
        },
        {
          "name": "gameItemName",
          "type": "string"
        },
        {
          "name": "sellingPrice",
          "type": "uint256"
        },
        {
          "name": "owner",
          "type": "address"
        },
        {
          "name": "gameId",
          "type": "uint256"
        }
      ],
      "payable": false,
      "stateMutability": "view",
      "type": "function"
    },
    {
      "constant": true,
      "inputs": [],
      "name": "symbol",
      "outputs": [
        {
          "name": "",
          "type": "string"
        }
      ],
      "payable": false,
      "stateMutability": "pure",
      "type": "function"
    },
    {
      "constant": true,
      "inputs": [],
      "name": "NAME",
      "outputs": [
        {
          "name": "",
          "type": "string"
        }
      ],
      "payable": false,
      "stateMutability": "view",
      "type": "function"
    },
    {
      "constant": false,
      "inputs": [
        {
          "name": "_to",
          "type": "address"
        },
        {
          "name": "_tokenId",
          "type": "uint256"
        }
      ],
      "name": "transfer",
      "outputs": [],
      "payable": false,
      "stateMutability": "nonpayable",
      "type": "function"
    },
    {
      "constant": true,
      "inputs": [],
      "name": "cooAddress",
      "outputs": [
        {
          "name": "",
          "type": "address"
        }
      ],
      "payable": false,
      "stateMutability": "view",
      "type": "function"
    },
    {
      "constant": false,
      "inputs": [
        {
          "name": "_tokenId",
          "type": "uint256"
        }
      ],
      "name": "takeOwnership",
      "outputs": [],
      "payable": false,
      "stateMutability": "nonpayable",
      "type": "function"
    },
    {
      "constant": true,
      "inputs": [
        {
          "name": "_tokenId",
          "type": "uint256"
        }
      ],
      "name": "priceOf",
      "outputs": [
        {
          "name": "price",
          "type": "uint256"
        }
      ],
      "payable": false,
      "stateMutability": "view",
      "type": "function"
    },
    {
      "constant": false,
      "inputs": [
        {
          "name": "_owner",
          "type": "address"
        },
        {
          "name": "_name",
          "type": "string"
        },
        {
          "name": "_price",
          "type": "uint256"
        },
        {
          "name": "_gameId",
          "type": "uint256"
        }
      ],
      "name": "createPromoGameItem",
      "outputs": [],
      "payable": false,
      "stateMutability": "nonpayable",
      "type": "function"
    },
    {
      "constant": false,
      "inputs": [
        {
          "name": "_tokenId",
          "type": "uint256"
        }
      ],
      "name": "purchase",
      "outputs": [],
      "payable": true,
      "stateMutability": "payable",
      "type": "function"
    },
    {
      "constant": true,
      "inputs": [
        {
          "name": "",
          "type": "uint256"
        }
      ],
      "name": "gameItemIndexToApproved",
      "outputs": [
        {
          "name": "",
          "type": "address"
        }
      ],
      "payable": false,
      "stateMutability": "view",
      "type": "function"
    },
    {
      "constant": true,
      "inputs": [],
      "name": "SYMBOL",
      "outputs": [
        {
          "name": "",
          "type": "string"
        }
      ],
      "payable": false,
      "stateMutability": "view",
      "type": "function"
    },
    {
      "inputs": [],
      "payable": false,
      "stateMutability": "nonpayable",
      "type": "constructor"
    },
    {
      "anonymous": false,
      "inputs": [
        {
          "indexed": false,
          "name": "tokenId",
          "type": "uint256"
        },
        {
          "indexed": false,
          "name": "name",
          "type": "string"
        },
        {
          "indexed": false,
          "name": "owner",
          "type": "address"
        }
      ],
      "name": "Birth",
      "type": "event"
    },
    {
      "anonymous": false,
      "inputs": [
        {
          "indexed": false,
          "name": "tokenId",
          "type": "uint256"
        },
        {
          "indexed": false,
          "name": "oldPrice",
          "type": "uint256"
        },
        {
          "indexed": false,
          "name": "newPrice",
          "type": "uint256"
        },
        {
          "indexed": false,
          "name": "prevOwner",
          "type": "address"
        },
        {
          "indexed": false,
          "name": "winner",
          "type": "address"
        },
        {
          "indexed": false,
          "name": "name",
          "type": "string"
        }
      ],
      "name": "TokenSold",
      "type": "event"
    },
    {
      "anonymous": false,
      "inputs": [
        {
          "indexed": false,
          "name": "from",
          "type": "address"
        },
        {
          "indexed": false,
          "name": "to",
          "type": "address"
        },
        {
          "indexed": false,
          "name": "tokenId",
          "type": "uint256"
        }
      ],
      "name": "Transfer",
      "type": "event"
    },
    {
      "anonymous": false,
      "inputs": [
        {
          "indexed": true,
          "name": "owner",
          "type": "address"
        },
        {
          "indexed": true,
          "name": "approved",
          "type": "address"
        },
        {
          "indexed": false,
          "name": "tokenId",
          "type": "uint256"
        }
      ],
      "name": "Approval",
      "type": "event"
    }
  ],
  "bytecode": "0x606060405273dec14d8f4da25108fd0d32bf2decd9538564d0696000806101000a81548173ffffffffffffffffffffffffffffffffffffffff021916908373ffffffffffffffffffffffffffffffffffffffff1602179055506611c37937e08000600155341561006e57600080fd5b33600660006101000a81548173ffffffffffffffffffffffffffffffffffffffff021916908373ffffffffffffffffffffffffffffffffffffffff16021790555033600760006101000a81548173ffffffffffffffffffffffffffffffffffffffff021916908373ffffffffffffffffffffffffffffffffffffffff1602179055506122fb806100ff6000396000f30060606040526004361061015f576000357c0100000000000000000000000000000000000000000000000000000000900463ffffffff16806305e455461461016457806306fdde031461018d578063095ea7b31461021b5780630a0f81681461025d5780630b7e9c44146102b25780631051db34146102eb57806318160ddd1461031857806323b872dd1461034157806327d7874c146103a25780632ba73c15146103db57806350e9bf32146104145780635db42841146104775780636352211e146104dd5780636ee3d4531461054057806370a082311461056c5780638462151c146105b957806394f13f4a1461064757806395d89b411461072b578063a3f4df7e146107b9578063a9059cbb14610847578063b047fb5014610889578063b2e6ceeb146108de578063b9186d7d14610901578063db57c42914610938578063efef39a1146109c6578063f6284a22146109de578063f76f8d7814610a41575b600080fd5b341561016f57600080fd5b610177610acf565b6040518082815260200191505060405180910390f35b341561019857600080fd5b6101a0610ad5565b6040518080602001828103825283818151815260200191508051906020019080838360005b838110156101e05780820151818401526020810190506101c5565b50505050905090810190601f16801561020d5780820380516001836020036101000a031916815260200191505b509250505060405180910390f35b341561022657600080fd5b61025b600480803573ffffffffffffffffffffffffffffffffffffffff16906020019091908035906020019091905050610b18565b005b341561026857600080fd5b610270610be8565b604051808273ffffffffffffffffffffffffffffffffffffffff1673ffffffffffffffffffffffffffffffffffffffff16815260200191505060405180910390f35b34156102bd57600080fd5b6102e9600480803573ffffffffffffffffffffffffffffffffffffffff16906020019091905050610c0e565b005b34156102f657600080fd5b6102fe610cce565b604051808215151515815260200191505060405180910390f35b341561032357600080fd5b61032b610cd7565b6040518082815260200191505060405180910390f35b341561034c57600080fd5b6103a0600480803573ffffffffffffffffffffffffffffffffffffffff1690602001909190803573ffffffffffffffffffffffffffffffffffffffff16906020019091908035906020019091905050610ce4565b005b34156103ad57600080fd5b6103d9600480803573ffffffffffffffffffffffffffffffffffffffff16906020019091905050610d32565b005b34156103e657600080fd5b610412600480803573ffffffffffffffffffffffffffffffffffffffff16906020019091905050610e0e565b005b341561041f57600080fd5b6104356004808035906020019091905050610eea565b604051808273ffffffffffffffffffffffffffffffffffffffff1673ffffffffffffffffffffffffffffffffffffffff16815260200191505060405180910390f35b341561048257600080fd5b6104db600480803590602001908201803590602001908080601f01602080910402602001604051908101604052809392919081815260200183838082843782019150505050505091908035906020019091905050610f1d565b005b34156104e857600080fd5b6104fe6004808035906020019091905050610f8b565b604051808273ffffffffffffffffffffffffffffffffffffffff1673ffffffffffffffffffffffffffffffffffffffff16815260200191505060405180910390f35b341561054b57600080fd5b61056a6004808035906020019091908035906020019091905050611004565b005b341561057757600080fd5b6105a3600480803573ffffffffffffffffffffffffffffffffffffffff1690602001909190505061109c565b6040518082815260200191505060405180910390f35b34156105c457600080fd5b6105f0600480803573ffffffffffffffffffffffffffffffffffffffff169060200190919050506110e5565b6040518080602001828103825283818151815260200191508051906020019060200280838360005b83811015610633578082015181840152602081019050610618565b505050509050019250505060405180910390f35b341561065257600080fd5b610668600480803590602001909190505061121c565b60405180868152602001806020018581526020018473ffffffffffffffffffffffffffffffffffffffff1673ffffffffffffffffffffffffffffffffffffffff168152602001838152602001828103825286818151815260200191508051906020019080838360005b838110156106ec5780820151818401526020810190506106d1565b50505050905090810190601f1680156107195780820380516001836020036101000a031916815260200191505b50965050505050505060405180910390f35b341561073657600080fd5b61073e61134a565b6040518080602001828103825283818151815260200191508051906020019080838360005b8381101561077e578082015181840152602081019050610763565b50505050905090810190601f1680156107ab5780820380516001836020036101000a031916815260200191505b509250505060405180910390f35b34156107c457600080fd5b6107cc61138d565b6040518080602001828103825283818151815260200191508051906020019080838360005b8381101561080c5780820151818401526020810190506107f1565b50505050905090810190601f1680156108395780820380516001836020036101000a031916815260200191505b509250505060405180910390f35b341561085257600080fd5b610887600480803573ffffffffffffffffffffffffffffffffffffffff169060200190919080359060200190919050506113c6565b005b341561089457600080fd5b61089c6113fe565b604051808273ffffffffffffffffffffffffffffffffffffffff1673ffffffffffffffffffffffffffffffffffffffff16815260200191505060405180910390f35b34156108e957600080fd5b6108ff6004808035906020019091905050611424565b005b341561090c57600080fd5b6109226004808035906020019091905050611499565b6040518082815260200191505060405180910390f35b341561094357600080fd5b6109c4600480803573ffffffffffffffffffffffffffffffffffffffff1690602001909190803590602001908201803590602001908080601f016020809104026020016040519081016040528093929190818152602001838380828437820191505050505050919080359060200190919080359060200190919050506114b6565b005b6109dc60048080359060200190919050506115a7565b005b34156109e957600080fd5b6109ff600480803590602001909190505061190c565b604051808273ffffffffffffffffffffffffffffffffffffffff1673ffffffffffffffffffffffffffffffffffffffff16815260200191505060405180910390f35b3415610a4c57600080fd5b610a5461193f565b6040518080602001828103825283818151815260200191508051906020019080838360005b83811015610a94578082015181840152602081019050610a79565b50505050905090810190601f168015610ac15780820380516001836020036101000a031916815260200191505b509250505060405180910390f35b60085481565b610add61211d565b6040805190810160405280601781526020017f43727970746f4b6f74616b7547616d654974656d4e6577000000000000000000815250905090565b610b223382611978565b1515610b2d57600080fd5b816004600083815260200190815260200160002060006101000a81548173ffffffffffffffffffffffffffffffffffffffff021916908373ffffffffffffffffffffffffffffffffffffffff1602179055508173ffffffffffffffffffffffffffffffffffffffff163373ffffffffffffffffffffffffffffffffffffffff167f8c5be1e5ebec7d5bd14f71427d1e84f3dd0314c0f7b2291e5b200ac8c7c3b925836040518082815260200191505060405180910390a35050565b600660009054906101000a900473ffffffffffffffffffffffffffffffffffffffff1681565b600660009054906101000a900473ffffffffffffffffffffffffffffffffffffffff1673ffffffffffffffffffffffffffffffffffffffff163373ffffffffffffffffffffffffffffffffffffffff161480610cb75750600760009054906101000a900473ffffffffffffffffffffffffffffffffffffffff1673ffffffffffffffffffffffffffffffffffffffff163373ffffffffffffffffffffffffffffffffffffffff16145b1515610cc257600080fd5b610ccb816119e4565b50565b60006001905090565b6000600980549050905090565b610cee8382611978565b1515610cf957600080fd5b610d038282611af2565b1515610d0e57600080fd5b610d1782611b5e565b1515610d2257600080fd5b610d2d838383611b97565b505050565b600660009054906101000a900473ffffffffffffffffffffffffffffffffffffffff1673ffffffffffffffffffffffffffffffffffffffff163373ffffffffffffffffffffffffffffffffffffffff16141515610d8e57600080fd5b600073ffffffffffffffffffffffffffffffffffffffff168173ffffffffffffffffffffffffffffffffffffffff1614151515610dca57600080fd5b80600660006101000a81548173ffffffffffffffffffffffffffffffffffffffff021916908373ffffffffffffffffffffffffffffffffffffffff16021790555050565b600660009054906101000a900473ffffffffffffffffffffffffffffffffffffffff1673ffffffffffffffffffffffffffffffffffffffff163373ffffffffffffffffffffffffffffffffffffffff16141515610e6a57600080fd5b600073ffffffffffffffffffffffffffffffffffffffff168173ffffffffffffffffffffffffffffffffffffffff1614151515610ea657600080fd5b80600760006101000a81548173ffffffffffffffffffffffffffffffffffffffff021916908373ffffffffffffffffffffffffffffffffffffffff16021790555050565b60026020528060005260406000206000915054906101000a900473ffffffffffffffffffffffffffffffffffffffff1681565b600760009054906101000a900473ffffffffffffffffffffffffffffffffffffffff1673ffffffffffffffffffffffffffffffffffffffff163373ffffffffffffffffffffffffffffffffffffffff16141515610f7957600080fd5b610f87823060015484611d99565b5050565b60006002600083815260200190815260200160002060009054906101000a900473ffffffffffffffffffffffffffffffffffffffff169050600073ffffffffffffffffffffffffffffffffffffffff168173ffffffffffffffffffffffffffffffffffffffff1614151515610fff57600080fd5b919050565b60008111151561101357600080fd5b3373ffffffffffffffffffffffffffffffffffffffff166002600084815260200190815260200160002060009054906101000a900473ffffffffffffffffffffffffffffffffffffffff1673ffffffffffffffffffffffffffffffffffffffff1614151561108057600080fd5b8060056000848152602001908152602001600020819055505050565b6000600360008373ffffffffffffffffffffffffffffffffffffffff1673ffffffffffffffffffffffffffffffffffffffff168152602001908152602001600020549050919050565b6110ed612131565b60006110f7612131565b60008060006111058761109c565b9450600085141561113757600060405180591061111f5750595b90808252806020026020018201604052509550611212565b846040518059106111455750595b90808252806020026020018201604052509350611160610cd7565b925060009150600090505b828111151561120e578673ffffffffffffffffffffffffffffffffffffffff166002600083815260200190815260200160002060009054906101000a900473ffffffffffffffffffffffffffffffffffffffff1673ffffffffffffffffffffffffffffffffffffffff161415611201578084838151811015156111ea57fe5b906020019060200201818152505081806001019250505b808060010191505061116b565b8395505b5050505050919050565b600061122661211d565b60008060008060098781548110151561123b57fe5b90600052602060002090600202019050869550806000018054600181600116156101000203166002900480601f0160208091040260200160405190810160405280929190818152602001828054600181600116156101000203166002900480156112e65780601f106112bb576101008083540402835291602001916112e6565b820191906000526020600020905b8154815290600101906020018083116112c957829003601f168201915b50505050509450600560008881526020019081526020016000205493506002600088815260200190815260200160002060009054906101000a900473ffffffffffffffffffffffffffffffffffffffff169250806001015491505091939590929450565b61135261211d565b6040805190810160405280600b81526020017f47616d654974656d4e6577000000000000000000000000000000000000000000815250905090565b6040805190810160405280601781526020017f43727970746f4b6f74616b7547616d654974656d4e657700000000000000000081525081565b6113d03382611978565b15156113db57600080fd5b6113e482611b5e565b15156113ef57600080fd5b6113fa338383611b97565b5050565b600760009054906101000a900473ffffffffffffffffffffffffffffffffffffffff1681565b6000803391506002600084815260200190815260200160002060009054906101000a900473ffffffffffffffffffffffffffffffffffffffff16905061146982611b5e565b151561147457600080fd5b61147e8284611af2565b151561148957600080fd5b611494818385611b97565b505050565b600060056000838152602001908152602001600020549050919050565b6000600760009054906101000a900473ffffffffffffffffffffffffffffffffffffffff1673ffffffffffffffffffffffffffffffffffffffff163373ffffffffffffffffffffffffffffffffffffffff1614151561151457600080fd5b849050600073ffffffffffffffffffffffffffffffffffffffff168173ffffffffffffffffffffffffffffffffffffffff16141561157257600760009054906101000a900473ffffffffffffffffffffffffffffffffffffffff1690505b6000831115156115825760015492505b6008600081548092919060010191905055506115a084828585611d99565b5050505050565b60008060008060008060006002600089815260200190815260200160002060009054906101000a900473ffffffffffffffffffffffffffffffffffffffff169650339550600560008981526020019081526020016000205494508573ffffffffffffffffffffffffffffffffffffffff168773ffffffffffffffffffffffffffffffffffffffff161415151561163c57600080fd5b61164586611b5e565b151561165057600080fd5b84341015151561165f57600080fd5b61167461166d86600a611f2a565b6064611f65565b935061168b611684866006611f2a565b6064611f65565b92508383860303915061169e3486611f80565b90506116b56116ae866096611f2a565b6064611f65565b600560008a8152602001908152602001600020819055506116d787878a611b97565b7e8201e7bcbf010c2c07de59d6e97cb7e3cf67a46125c49cbc89b9d2cde1f48f8886600560008c8152602001908152602001600020548a8a60098e81548110151561171e57fe5b9060005260206000209060020201600001604051808781526020018681526020018581526020018473ffffffffffffffffffffffffffffffffffffffff1673ffffffffffffffffffffffffffffffffffffffff1681526020018373ffffffffffffffffffffffffffffffffffffffff1673ffffffffffffffffffffffffffffffffffffffff1681526020018060200182810382528381815460018160011615610100020316600290048152602001915080546001816001161561010002031660029004801561182e5780601f106118035761010080835404028352916020019161182e565b820191906000526020600020905b81548152906001019060200180831161181157829003601f168201915b505097505050505050505060405180910390a13073ffffffffffffffffffffffffffffffffffffffff168773ffffffffffffffffffffffffffffffffffffffff161415156118b7578673ffffffffffffffffffffffffffffffffffffffff166108fc839081150290604051600060405180830381858888f1935050505015156118b657600080fd5b5b3373ffffffffffffffffffffffffffffffffffffffff166108fc829081150290604051600060405180830381858888f1935050505015156118f757600080fd5b611902848985611f99565b5050505050505050565b60046020528060005260406000206000915054906101000a900473ffffffffffffffffffffffffffffffffffffffff1681565b6040805190810160405280600b81526020017f47616d654974656d4e657700000000000000000000000000000000000000000081525081565b60006002600083815260200190815260200160002060009054906101000a900473ffffffffffffffffffffffffffffffffffffffff1673ffffffffffffffffffffffffffffffffffffffff168373ffffffffffffffffffffffffffffffffffffffff1614905092915050565b600073ffffffffffffffffffffffffffffffffffffffff168173ffffffffffffffffffffffffffffffffffffffff161415611a9757600660009054906101000a900473ffffffffffffffffffffffffffffffffffffffff1673ffffffffffffffffffffffffffffffffffffffff166108fc3073ffffffffffffffffffffffffffffffffffffffff16319081150290604051600060405180830381858888f193505050501515611a9257600080fd5b611aef565b8073ffffffffffffffffffffffffffffffffffffffff166108fc3073ffffffffffffffffffffffffffffffffffffffff16319081150290604051600060405180830381858888f193505050501515611aee57600080fd5b5b50565b60008273ffffffffffffffffffffffffffffffffffffffff166004600084815260200190815260200160002060009054906101000a900473ffffffffffffffffffffffffffffffffffffffff1673ffffffffffffffffffffffffffffffffffffffff1614905092915050565b60008073ffffffffffffffffffffffffffffffffffffffff168273ffffffffffffffffffffffffffffffffffffffff1614159050919050565b600360008373ffffffffffffffffffffffffffffffffffffffff1673ffffffffffffffffffffffffffffffffffffffff16815260200190815260200160002060008154809291906001019190505550816002600083815260200190815260200160002060006101000a81548173ffffffffffffffffffffffffffffffffffffffff021916908373ffffffffffffffffffffffffffffffffffffffff160217905550600073ffffffffffffffffffffffffffffffffffffffff168373ffffffffffffffffffffffffffffffffffffffff16141515611cf557600360008473ffffffffffffffffffffffffffffffffffffffff1673ffffffffffffffffffffffffffffffffffffffff16815260200190815260200160002060008154809291906001900391905055506004600082815260200190815260200160002060006101000a81549073ffffffffffffffffffffffffffffffffffffffff02191690555b7fddf252ad1be2c89b69c2b068fc378daa952ba7f163c4a11628f55a4df523b3ef838383604051808473ffffffffffffffffffffffffffffffffffffffff1673ffffffffffffffffffffffffffffffffffffffff1681526020018373ffffffffffffffffffffffffffffffffffffffff1673ffffffffffffffffffffffffffffffffffffffff168152602001828152602001935050505060405180910390a1505050565b611da1612145565b60006040805190810160405280878152602001848152509150600160098054806001018281611dd09190612165565b916000526020600020906002020160008590919091506000820151816000019080519060200190611e02929190612197565b506020820151816001015550500390508063ffffffff1681141515611e2657600080fd5b7fb3b0cf861f168bcdb275c69da97b2543631552ba562628aa3c7317d4a6089ef281878760405180848152602001806020018373ffffffffffffffffffffffffffffffffffffffff1673ffffffffffffffffffffffffffffffffffffffff168152602001828103825284818151815260200191508051906020019080838360005b83811015611ec2578082015181840152602081019050611ea7565b50505050905090810190601f168015611eef5780820380516001836020036101000a031916815260200191505b5094505050505060405180910390a1836005600083815260200190815260200160002081905550611f2260008683611b97565b505050505050565b6000806000841415611f3f5760009150611f5e565b8284029050828482811515611f5057fe5b04141515611f5a57fe5b8091505b5092915050565b6000808284811515611f7357fe5b0490508091505092915050565b6000828211151515611f8e57fe5b818303905092915050565b6000806000809054906101000a900473ffffffffffffffffffffffffffffffffffffffff1691508173ffffffffffffffffffffffffffffffffffffffff1663ab22a640600986815481101515611feb57fe5b9060005260206000209060020201600101546000604051602001526040518263ffffffff167c010000000000000000000000000000000000000000000000000000000002815260040180828152602001915050602060405180830381600087803b151561205757600080fd5b6102c65a03f1151561206857600080fd5b5050506040518051905090508073ffffffffffffffffffffffffffffffffffffffff166108fc869081150290604051600060405180830381858888f1935050505015156120b457600080fd5b600660009054906101000a900473ffffffffffffffffffffffffffffffffffffffff1673ffffffffffffffffffffffffffffffffffffffff166108fc849081150290604051600060405180830381858888f19350505050151561211657600080fd5b5050505050565b602060405190810160405280600081525090565b602060405190810160405280600081525090565b6040805190810160405280612158612217565b8152602001600081525090565b81548183558181151161219257600202816002028360005260206000209182019101612191919061222b565b5b505050565b828054600181600116156101000203166002900490600052602060002090601f016020900481019282601f106121d857805160ff1916838001178555612206565b82800160010185558215612206579182015b828111156122055782518255916020019190600101906121ea565b5b5090506122139190612262565b5090565b602060405190810160405280600081525090565b61225f91905b8082111561225b576000808201600061224a9190612287565b600182016000905550600201612231565b5090565b90565b61228491905b80821115612280576000816000905550600101612268565b5090565b90565b50805460018160011615610100020316600290046000825580601f106122ad57506122cc565b601f0160209004906000526020600020908101906122cb9190612262565b5b505600a165627a7a723058207c270a7cec247690c30a9ddc323fb41030dce74d612f6d5ddf595a85769d98f30029",
  "source": "pragma solidity ^0.4.18; // solhint-disable-line\n\n\n\n/// @title Interface for contracts conforming to ERC-721: Non-Fungible Tokens\n/// @author Dieter Shirley <dete@axiomzen.co> (https://github.com/dete)\ncontract ERC721 {\n  // Required methods\n  function approve(address _to, uint256 _tokenId) public;\n  function balanceOf(address _owner) public view returns (uint256 balance);\n  function implementsERC721() public pure returns (bool);\n  function ownerOf(uint256 _tokenId) public view returns (address addr);\n  function takeOwnership(uint256 _tokenId) public;\n  function totalSupply() public view returns (uint256 total);\n  function transferFrom(address _from, address _to, uint256 _tokenId) public;\n  function transfer(address _to, uint256 _tokenId) public;\n\n  event Transfer(address indexed from, address indexed to, uint256 tokenId);\n  event Approval(address indexed owner, address indexed approved, uint256 tokenId);\n\n  // Optional\n  // function name() public view returns (string name);\n  // function symbol() public view returns (string symbol);\n  // function tokenOfOwnerByIndex(address _owner, uint256 _index) external view returns (uint256 tokenId);\n  // function tokenMetadata(uint256 _tokenId) public view returns (string infoUrl);\n}\n\n\ncontract GameItemNew is ERC721 {\n\n  address cryptoVideoGames = 0xdEc14D8f4DA25108Fd0d32Bf2DeCD9538564D069; \n\n  /*** EVENTS ***/\n\n  /// @dev The Birth event is fired whenever a new Game Item comes into existence.\n  event Birth(uint256 tokenId, string name, address owner);\n\n  /// @dev The TokenSold event is fired whenever a token is sold.\n  event TokenSold(uint256 tokenId, uint256 oldPrice, uint256 newPrice, address prevOwner, address winner, string name);\n\n  /// @dev Transfer event as defined in current draft of ERC721. \n  ///  ownership is assigned, including births.\n  event Transfer(address from, address to, uint256 tokenId);\n\n  /*** CONSTANTS ***/\n\n  /// @notice Name and symbol of the non fungible token, as defined in ERC721.\n  string public constant NAME = \"CryptoKotakuGameItemNew\"; // solhint-disable-line\n  string public constant SYMBOL = \"GameItemNew\"; // solhint-disable-line\n\n  uint256 private startingPrice = 0.005 ether;\n\n  /*** STORAGE ***/\n\n  /// @dev A mapping from Game Item IDs to the address that owns them. All Game Items have\n  ///  some valid owner address.\n  mapping (uint256 => address) public gameItemIndexToOwner;\n\n  // @dev A mapping from owner address to count of tokens that address owns.\n  //  Used internally inside balanceOf() to resolve ownership count.\n  mapping (address => uint256) private ownershipTokenCount;\n\n  /// @dev A mapping from gameItemIDs to an address that has been approved to call\n  ///  transferFrom(). Each game Item can only have one approved address for transfer\n  ///  at any time. A zero value means no approval is outstanding.\n  mapping (uint256 => address) public gameItemIndexToApproved;\n\n  // @dev A mapping from game Item IDs to the price of the token.\n  mapping (uint256 => uint256) private gameItemIndexToPrice;\n\n  // The addresses of the accounts (or contracts) that can execute actions within each roles.\n  address public ceoAddress;\n  address public cooAddress;\n\n  uint256 public promoCreatedCount;\n\n  /*** DATATYPES ***/\n  struct GameItem {\n    string name;\n    uint gameId;\n  }\n\n  GameItem[] private gameItems;\n\n  /*** ACCESS MODIFIERS ***/\n  /// @dev Access modifier for CEO-only functionality\n  modifier onlyCEO() {\n    require(msg.sender == ceoAddress);\n    _;\n  }\n\n  /// @dev Access modifier for COO-only functionality\n  modifier onlyCOO() {\n    require(msg.sender == cooAddress);\n    _;\n  }\n\n  /// Access modifier for contract owner only functionality\n  modifier onlyCLevel() {\n    require(\n      msg.sender == ceoAddress ||\n      msg.sender == cooAddress\n    );\n    _;\n  }\n\n  /*** CONSTRUCTOR ***/\n  function GameItemNew() public {\n    ceoAddress = msg.sender;\n    cooAddress = msg.sender;\n  }\n\n  /*** PUBLIC FUNCTIONS ***/\n  /// @notice Grant another address the right to transfer token via takeOwnership() and transferFrom().\n  /// @param _to The address to be granted transfer approval. Pass address(0) to\n  ///  clear all approvals.\n  /// @param _tokenId The ID of the Token that can be transferred if this call succeeds.\n  /// @dev Required for ERC-721 compliance.\n  function approve(\n    address _to,\n    uint256 _tokenId\n  ) public {\n    // Caller must own token.\n    require(_owns(msg.sender, _tokenId));\n\n    gameItemIndexToApproved[_tokenId] = _to;\n\n    Approval(msg.sender, _to, _tokenId);\n  }\n\n  /// For querying balance of a particular account\n  /// @param _owner The address for balance query\n  /// @dev Required for ERC-721 compliance.\n  function balanceOf(address _owner) public view returns (uint256 balance) {\n    return ownershipTokenCount[_owner];\n  }\n\n  /// @dev Creates a new promo game Item with the given name, with given _price and assignes it to an address.\n  function createPromoGameItem(address _owner, string _name, uint256 _price, uint _gameId) public onlyCOO {\n\n    address gameItemOwner = _owner;\n    if (gameItemOwner == address(0)) {\n      gameItemOwner = cooAddress;\n    }\n\n    if (_price <= 0) {\n      _price = startingPrice;\n    }\n\n    promoCreatedCount++;\n    _createGameItem(_name, gameItemOwner, _price, _gameId);\n  }\n\n  /// @dev Creates a new gameItem with the given name.\n  function createContractGameItem(string _name, uint _gameId) public onlyCOO {\n    _createGameItem(_name, address(this), startingPrice, _gameId);\n  }\n\n  /// @notice Returns all the relevant information about a specific GameItem.\n  /// @param _tokenId The tokenId of the GameItem of interest.\n  function getGameItem(uint256 _tokenId) public view returns (\n    uint256 Id,\n    string gameItemName,\n    uint256 sellingPrice,\n    address owner,\n    uint gameId\n  ) {\n    GameItem storage gameItem = gameItems[_tokenId];\n    Id = _tokenId;\n    gameItemName = gameItem.name;\n    sellingPrice = gameItemIndexToPrice[_tokenId];\n    owner = gameItemIndexToOwner[_tokenId];\n    gameId = gameItem.gameId;\n  }\n\n  function implementsERC721() public pure returns (bool) {\n    return true;\n  }\n\n  /// @dev Required for ERC-721 compliance.\n  function name() public pure returns (string) {\n    return NAME;\n  }\n\n  /// For querying owner of token\n  /// @param _tokenId The tokenID for owner inquiry\n  /// @dev Required for ERC-721 compliance.\n  function ownerOf(uint256 _tokenId)\n    public\n    view\n    returns (address owner)\n  {\n    owner = gameItemIndexToOwner[_tokenId];\n    require(owner != address(0));\n  }\n\n  function payout(address _to) public onlyCLevel {\n    _payout(_to);\n  }\n\n  // Allows someone to send ether and obtain the token\n  function purchase(uint256 _tokenId) public payable {\n    address oldOwner = gameItemIndexToOwner[_tokenId];\n    address newOwner = msg.sender;\n\n    uint256 sellingPrice = gameItemIndexToPrice[_tokenId];\n\n    // Making sure token owner is not sending to self\n    require(oldOwner != newOwner);\n\n    // Safety check to prevent against an unexpected 0x0 default.\n    require(_addressNotNull(newOwner));\n\n    // Making sure sent amount is greater than or equal to the sellingPrice\n    require(msg.value >= sellingPrice);\n\n    uint256 gameOwnerPayment = uint256(SafeMath.div(SafeMath.mul(sellingPrice, 10), 100));\n    uint256 devFees = uint256(SafeMath.div(SafeMath.mul(sellingPrice, 6), 100));\n    uint256 payment =  sellingPrice - devFees - gameOwnerPayment;\n    uint256 purchaseExcess = SafeMath.sub(msg.value,sellingPrice);\n\n   \n    gameItemIndexToPrice[_tokenId] = SafeMath.div(SafeMath.mul(sellingPrice, 150), 100);\n    \n    _transfer(oldOwner, newOwner, _tokenId);\n    TokenSold(_tokenId, sellingPrice, gameItemIndexToPrice[_tokenId], oldOwner, newOwner, gameItems[_tokenId].name);\n\n    // Pay previous tokenOwner if owner is not contract\n    if (oldOwner != address(this)) {\n      oldOwner.transfer(payment);\n    }\n    \n    msg.sender.transfer(purchaseExcess);\n    _transferDivs(gameOwnerPayment, _tokenId, devFees);\n    \n  }\n\n  /// Divident distributions\n  function _transferDivs(uint256 _gameOwnerPayment, uint256 _tokenId,uint256 _devFees) private {\n    CryptoVideoGames gamesContract = CryptoVideoGames(cryptoVideoGames);\n    address gameOwner = gamesContract.getVideoGameOwner(gameItems[_tokenId].gameId);\n    gameOwner.transfer(_gameOwnerPayment);\n    ceoAddress.transfer(_devFees);\n  }\n\n  function priceOf(uint256 _tokenId) public view returns (uint256 price) {\n    return gameItemIndexToPrice[_tokenId];\n  }\n\n  /// @dev Assigns a new address to act as the CEO. Only available to the current CEO.\n  /// @param _newCEO The address of the new CEO\n  function setCEO(address _newCEO) public onlyCEO {\n    require(_newCEO != address(0));\n\n    ceoAddress = _newCEO;\n  }\n\n  /// @dev Assigns a new address to act as the COO. Only available to the current COO.\n  /// @param _newCOO The address of the new COO\n  function setCOO(address _newCOO) public onlyCEO {\n    require(_newCOO != address(0));\n\n    cooAddress = _newCOO;\n  }\n\n  /// @dev Required for ERC-721 compliance.\n  function symbol() public pure returns (string) {\n    return SYMBOL;\n  }\n\n  /// @notice Allow pre-approved user to take ownership of a token\n  /// @param _tokenId The ID of the Token that can be transferred if this call succeeds.\n  /// @dev Required for ERC-721 compliance.\n  function takeOwnership(uint256 _tokenId) public {\n    address newOwner = msg.sender;\n    address oldOwner = gameItemIndexToOwner[_tokenId];\n\n    // Safety check to prevent against an unexpected 0x0 default.\n    require(_addressNotNull(newOwner));\n\n    // Making sure transfer is approved\n    require(_approved(newOwner, _tokenId));\n\n    _transfer(oldOwner, newOwner, _tokenId);\n  }\n\n  /// @param _owner The owner whose gameItem tokens we are interested in.\n  /// @dev This method MUST NEVER be called by smart contract code. First, it's fairly\n  ///  expensive (it walks the entire gameItems array looking for gameItems belonging to owner),\n  ///  but it also returns a dynamic array, which is only supported for web3 calls, and\n  ///  not contract-to-contract calls.\n  function tokensOfOwner(address _owner) public view returns(uint256[] ownerTokens) {\n    uint256 tokenCount = balanceOf(_owner);\n    if (tokenCount == 0) {\n        // Return an empty array\n      return new uint256[](0);\n    } else {\n      uint256[] memory result = new uint256[](tokenCount);\n      uint256 totalGameItems = totalSupply();\n      uint256 resultIndex = 0;\n\n      uint256 gameItemId;\n      for (gameItemId = 0; gameItemId <= totalGameItems; gameItemId++) {\n        if (gameItemIndexToOwner[gameItemId] == _owner) {\n          result[resultIndex] = gameItemId;\n          resultIndex++;\n        }\n      }\n      return result;\n    }\n  }\n\n  /// For querying totalSupply of token\n  /// @dev Required for ERC-721 compliance.\n  function totalSupply() public view returns (uint256 total) {\n    return gameItems.length;\n  }\n\n  /// Owner initates the transfer of the token to another account\n  /// @param _to The address for the token to be transferred to.\n  /// @param _tokenId The ID of the Token that can be transferred if this call succeeds.\n  /// @dev Required for ERC-721 compliance.\n  function transfer(\n    address _to,\n    uint256 _tokenId\n  ) public {\n    require(_owns(msg.sender, _tokenId));\n    require(_addressNotNull(_to));\n\n    _transfer(msg.sender, _to, _tokenId);\n  }\n\n  /// Third-party initiates transfer of token from address _from to address _to\n  /// @param _from The address for the token to be transferred from.\n  /// @param _to The address for the token to be transferred to.\n  /// @param _tokenId The ID of the Token that can be transferred if this call succeeds.\n  /// @dev Required for ERC-721 compliance.\n  function transferFrom(\n    address _from,\n    address _to,\n    uint256 _tokenId\n  ) public {\n    require(_owns(_from, _tokenId));\n    require(_approved(_to, _tokenId));\n    require(_addressNotNull(_to));\n\n    _transfer(_from, _to, _tokenId);\n  }\n\n  /*** PRIVATE FUNCTIONS ***/\n  /// Safety check on _to address to prevent against an unexpected 0x0 default.\n  function _addressNotNull(address _to) private pure returns (bool) {\n    return _to != address(0);\n  }\n\n  /// For checking approval of transfer for address _to\n  function _approved(address _to, uint256 _tokenId) private view returns (bool) {\n    return gameItemIndexToApproved[_tokenId] == _to;\n  }\n\n  /// For creating gameItem\n  function _createGameItem(string _name, address _owner, uint256 _price, uint _gameId) private {\n    GameItem memory _gameItem = GameItem({\n      name: _name,\n      gameId: _gameId\n    });\n    uint256 newGameItemId = gameItems.push(_gameItem) - 1;\n\n    // It's probably never going to happen, 4 billion tokens are A LOT, but\n    // let's just be 100% sure we never let this happen.\n    require(newGameItemId == uint256(uint32(newGameItemId)));\n\n    Birth(newGameItemId, _name, _owner);\n\n    gameItemIndexToPrice[newGameItemId] = _price;\n\n    // This will assign ownership, and also emit the Transfer event as\n    // per ERC721 draft\n    _transfer(address(0), _owner, newGameItemId);\n  }\n\n  /// Check for token ownership\n  function _owns(address claimant, uint256 _tokenId) private view returns (bool) {\n    return claimant == gameItemIndexToOwner[_tokenId];\n  }\n\n  /// For paying out balance on contract\n  function _payout(address _to) private {\n    if (_to == address(0)) {\n      ceoAddress.transfer(this.balance);\n    } else {\n      _to.transfer(this.balance);\n    }\n  }\n\n  /*\n  This function can be used by the owner of a GameItem item to modify the price of its GameItem item.\n  */\n  function modifyGameItemPrice(uint _gameItemId, uint256 _newPrice) public {\n      require(_newPrice > 0);\n      require(gameItemIndexToOwner[_gameItemId] == msg.sender);\n      gameItemIndexToPrice[_gameItemId] = _newPrice;\n  }\n\n  /// @dev Assigns ownership of a specific gameItem to an address.\n  function _transfer(address _from, address _to, uint256 _tokenId) private {\n    // Since the number of gameItem is capped to 2^32 we can't overflow this\n    ownershipTokenCount[_to]++;\n    //transfer ownership\n    gameItemIndexToOwner[_tokenId] = _to;\n\n    // When creating new gameItems _from is 0x0, but we can't account that address.\n    if (_from != address(0)) {\n      ownershipTokenCount[_from]--;\n      // clear any previously approved ownership exchange\n      delete gameItemIndexToApproved[_tokenId];\n    }\n\n    // Emit the transfer event.\n    Transfer(_from, _to, _tokenId);\n  }\n\n}\nlibrary SafeMath {\n\n  /**\n  * @dev Multiplies two numbers, throws on overflow.\n  */\n  function mul(uint256 a, uint256 b) internal pure returns (uint256) {\n    if (a == 0) {\n      return 0;\n    }\n    uint256 c = a * b;\n    assert(c / a == b);\n    return c;\n  }\n\n  /**\n  * @dev Integer division of two numbers, truncating the quotient.\n  */\n  function div(uint256 a, uint256 b) internal pure returns (uint256) {\n    // assert(b > 0); // Solidity automatically throws when dividing by 0\n    uint256 c = a / b;\n    // assert(a == b * c + a % b); // There is no case in which this doesn't hold\n    return c;\n  }\n\n  /**\n  * @dev Substracts two numbers, throws on overflow (i.e. if subtrahend is greater than minuend).\n  */\n  function sub(uint256 a, uint256 b) internal pure returns (uint256) {\n    assert(b <= a);\n    return a - b;\n  }\n\n  /**\n  * @dev Adds two numbers, throws on overflow.\n  */\n  function add(uint256 a, uint256 b) internal pure returns (uint256) {\n    uint256 c = a + b;\n    assert(c >= a);\n    return c;\n  }\n\n}\n\n\ncontract CryptoVideoGames {\n    // This function will return only the owner address of a specific Video Game\n    function getVideoGameOwner(uint _videoGameId) public view returns(address) {\n    }\n    \n}",
  "sourcePath": "/Users/itru/Desktop/cryptoworkspace/cryptovideogame/truffle/contracts/GameItemNew.sol",
  "compiler": {
    "name": "solc",
    "version": "0.4.18+commit.9cf6e910.Emscripten.clang"
  },
  "schemaVersion": "1.0.1",
  "updatedAt": "2018-03-08T12:44:50.341Z"
}