{
  "contractName": "PowZoneToken",
  "abi": [
    {
      "constant": true,
      "inputs": [],
      "name": "promoCreatedCount",
      "outputs": [
        {
          "name": "",
          "type": "uint256"
        }
      ],
      "payable": false,
      "stateMutability": "view",
      "type": "function"
    },
    {
      "constant": true,
      "inputs": [],
      "name": "name",
      "outputs": [
        {
          "name": "",
          "type": "string"
        }
      ],
      "payable": false,
      "stateMutability": "pure",
      "type": "function"
    },
    {
      "constant": false,
      "inputs": [
        {
          "name": "_to",
          "type": "address"
        },
        {
          "name": "_tokenId",
          "type": "uint256"
        }
      ],
      "name": "approve",
      "outputs": [],
      "payable": false,
      "stateMutability": "nonpayable",
      "type": "function"
    },
    {
      "constant": true,
      "inputs": [],
      "name": "ceoAddress",
      "outputs": [
        {
          "name": "",
          "type": "address"
        }
      ],
      "payable": false,
      "stateMutability": "view",
      "type": "function"
    },
    {
      "constant": false,
      "inputs": [
        {
          "name": "_to",
          "type": "address"
        }
      ],
      "name": "payout",
      "outputs": [],
      "payable": false,
      "stateMutability": "nonpayable",
      "type": "function"
    },
    {
      "constant": true,
      "inputs": [],
      "name": "implementsERC721",
      "outputs": [
        {
          "name": "",
          "type": "bool"
        }
      ],
      "payable": false,
      "stateMutability": "pure",
      "type": "function"
    },
    {
      "constant": true,
      "inputs": [],
      "name": "totalSupply",
      "outputs": [
        {
          "name": "total",
          "type": "uint256"
        }
      ],
      "payable": false,
      "stateMutability": "view",
      "type": "function"
    },
    {
      "constant": true,
      "inputs": [
        {
          "name": "_tokenId",
          "type": "uint256"
        }
      ],
      "name": "getPow",
      "outputs": [
        {
          "name": "Id",
          "type": "uint256"
        },
        {
          "name": "powName",
          "type": "string"
        },
        {
          "name": "sellingPrice",
          "type": "uint256"
        },
        {
          "name": "owner",
          "type": "address"
        },
        {
          "name": "gameId",
          "type": "uint256"
        },
        {
          "name": "gameItemId",
          "type": "uint256"
        }
      ],
      "payable": false,
      "stateMutability": "view",
      "type": "function"
    },
    {
      "constant": false,
      "inputs": [
        {
          "name": "_from",
          "type": "address"
        },
        {
          "name": "_to",
          "type": "address"
        },
        {
          "name": "_tokenId",
          "type": "uint256"
        }
      ],
      "name": "transferFrom",
      "outputs": [],
      "payable": false,
      "stateMutability": "nonpayable",
      "type": "function"
    },
    {
      "constant": false,
      "inputs": [
        {
          "name": "_newCEO",
          "type": "address"
        }
      ],
      "name": "setCEO",
      "outputs": [],
      "payable": false,
      "stateMutability": "nonpayable",
      "type": "function"
    },
    {
      "constant": false,
      "inputs": [
        {
          "name": "_newCOO",
          "type": "address"
        }
      ],
      "name": "setCOO",
      "outputs": [],
      "payable": false,
      "stateMutability": "nonpayable",
      "type": "function"
    },
    {
      "constant": true,
      "inputs": [
        {
          "name": "_tokenId",
          "type": "uint256"
        }
      ],
      "name": "ownerOf",
      "outputs": [
        {
          "name": "owner",
          "type": "address"
        }
      ],
      "payable": false,
      "stateMutability": "view",
      "type": "function"
    },
    {
      "constant": false,
      "inputs": [
        {
          "name": "_name",
          "type": "string"
        },
        {
          "name": "_gameId",
          "type": "uint256"
        },
        {
          "name": "_gameItemId",
          "type": "uint256"
        }
      ],
      "name": "createContractPow",
      "outputs": [],
      "payable": false,
      "stateMutability": "nonpayable",
      "type": "function"
    },
    {
      "constant": true,
      "inputs": [
        {
          "name": "_owner",
          "type": "address"
        }
      ],
      "name": "balanceOf",
      "outputs": [
        {
          "name": "balance",
          "type": "uint256"
        }
      ],
      "payable": false,
      "stateMutability": "view",
      "type": "function"
    },
    {
      "constant": true,
      "inputs": [
        {
          "name": "_owner",
          "type": "address"
        }
      ],
      "name": "tokensOfOwner",
      "outputs": [
        {
          "name": "ownerTokens",
          "type": "uint256[]"
        }
      ],
      "payable": false,
      "stateMutability": "view",
      "type": "function"
    },
    {
      "constant": true,
      "inputs": [
        {
          "name": "",
          "type": "uint256"
        }
      ],
      "name": "powIndexToApproved",
      "outputs": [
        {
          "name": "",
          "type": "address"
        }
      ],
      "payable": false,
      "stateMutability": "view",
      "type": "function"
    },
    {
      "constant": false,
      "inputs": [
        {
          "name": "_owner",
          "type": "address"
        },
        {
          "name": "_name",
          "type": "string"
        },
        {
          "name": "_price",
          "type": "uint256"
        },
        {
          "name": "_gameId",
          "type": "uint256"
        },
        {
          "name": "_gameItemId",
          "type": "uint256"
        }
      ],
      "name": "createPromoPow",
      "outputs": [],
      "payable": false,
      "stateMutability": "nonpayable",
      "type": "function"
    },
    {
      "constant": true,
      "inputs": [],
      "name": "symbol",
      "outputs": [
        {
          "name": "",
          "type": "string"
        }
      ],
      "payable": false,
      "stateMutability": "pure",
      "type": "function"
    },
    {
      "constant": true,
      "inputs": [],
      "name": "NAME",
      "outputs": [
        {
          "name": "",
          "type": "string"
        }
      ],
      "payable": false,
      "stateMutability": "view",
      "type": "function"
    },
    {
      "constant": false,
      "inputs": [
        {
          "name": "_to",
          "type": "address"
        },
        {
          "name": "_tokenId",
          "type": "uint256"
        }
      ],
      "name": "transfer",
      "outputs": [],
      "payable": false,
      "stateMutability": "nonpayable",
      "type": "function"
    },
    {
      "constant": true,
      "inputs": [],
      "name": "cooAddress",
      "outputs": [
        {
          "name": "",
          "type": "address"
        }
      ],
      "payable": false,
      "stateMutability": "view",
      "type": "function"
    },
    {
      "constant": false,
      "inputs": [
        {
          "name": "_tokenId",
          "type": "uint256"
        }
      ],
      "name": "takeOwnership",
      "outputs": [],
      "payable": false,
      "stateMutability": "nonpayable",
      "type": "function"
    },
    {
      "constant": true,
      "inputs": [
        {
          "name": "_tokenId",
          "type": "uint256"
        }
      ],
      "name": "priceOf",
      "outputs": [
        {
          "name": "price",
          "type": "uint256"
        }
      ],
      "payable": false,
      "stateMutability": "view",
      "type": "function"
    },
    {
      "constant": true,
      "inputs": [
        {
          "name": "",
          "type": "uint256"
        }
      ],
      "name": "powIndexToOwner",
      "outputs": [
        {
          "name": "",
          "type": "address"
        }
      ],
      "payable": false,
      "stateMutability": "view",
      "type": "function"
    },
    {
      "constant": false,
      "inputs": [
        {
          "name": "_tokenId",
          "type": "uint256"
        }
      ],
      "name": "purchase",
      "outputs": [],
      "payable": true,
      "stateMutability": "payable",
      "type": "function"
    },
    {
      "constant": true,
      "inputs": [],
      "name": "SYMBOL",
      "outputs": [
        {
          "name": "",
          "type": "string"
        }
      ],
      "payable": false,
      "stateMutability": "view",
      "type": "function"
    },
    {
      "inputs": [],
      "payable": false,
      "stateMutability": "nonpayable",
      "type": "constructor"
    },
    {
      "anonymous": false,
      "inputs": [
        {
          "indexed": false,
          "name": "tokenId",
          "type": "uint256"
        },
        {
          "indexed": false,
          "name": "name",
          "type": "string"
        },
        {
          "indexed": false,
          "name": "owner",
          "type": "address"
        }
      ],
      "name": "Birth",
      "type": "event"
    },
    {
      "anonymous": false,
      "inputs": [
        {
          "indexed": false,
          "name": "tokenId",
          "type": "uint256"
        },
        {
          "indexed": false,
          "name": "oldPrice",
          "type": "uint256"
        },
        {
          "indexed": false,
          "name": "newPrice",
          "type": "uint256"
        },
        {
          "indexed": false,
          "name": "prevOwner",
          "type": "address"
        },
        {
          "indexed": false,
          "name": "winner",
          "type": "address"
        },
        {
          "indexed": false,
          "name": "name",
          "type": "string"
        }
      ],
      "name": "TokenSold",
      "type": "event"
    },
    {
      "anonymous": false,
      "inputs": [
        {
          "indexed": false,
          "name": "from",
          "type": "address"
        },
        {
          "indexed": false,
          "name": "to",
          "type": "address"
        },
        {
          "indexed": false,
          "name": "tokenId",
          "type": "uint256"
        }
      ],
      "name": "Transfer",
      "type": "event"
    },
    {
      "anonymous": false,
      "inputs": [
        {
          "indexed": true,
          "name": "owner",
          "type": "address"
        },
        {
          "indexed": true,
          "name": "approved",
          "type": "address"
        },
        {
          "indexed": false,
          "name": "tokenId",
          "type": "uint256"
        }
      ],
      "name": "Approval",
      "type": "event"
    }
  ],
  "bytecode": "0x60606040527398069621fd7dadb3f2d862b78a4f7d22eb08a80a6000806101000a81548173ffffffffffffffffffffffffffffffffffffffff021916908373ffffffffffffffffffffffffffffffffffffffff16021790555073d0e06483a2cda9923bbd43e30d89a6bbe1a6f4a0600160006101000a81548173ffffffffffffffffffffffffffffffffffffffff021916908373ffffffffffffffffffffffffffffffffffffffff1602179055506611c37937e0800060025566b1a2bc2ec500006003556706f05b59d3b2000060045534156100da57600080fd5b33600960006101000a81548173ffffffffffffffffffffffffffffffffffffffff021916908373ffffffffffffffffffffffffffffffffffffffff16021790555033600a60006101000a81548173ffffffffffffffffffffffffffffffffffffffff021916908373ffffffffffffffffffffffffffffffffffffffff1602179055506123aa8061016b6000396000f300606060405260043610610154576000357c0100000000000000000000000000000000000000000000000000000000900463ffffffff16806305e455461461015957806306fdde0314610182578063095ea7b3146102105780630a0f8168146102525780630b7e9c44146102a75780631051db34146102e057806318160ddd1461030d5780631b1d95ff1461033657806323b872dd1461042157806327d7874c146104825780632ba73c15146104bb5780636352211e146104f457806363d06dd41461055757806370a08231146105c65780638462151c146106135780638b115a9e146106a15780638ef0f09a1461070457806395d89b411461079b578063a3f4df7e14610829578063a9059cbb146108b7578063b047fb50146108f9578063b2e6ceeb1461094e578063b9186d7d14610971578063e330fd92146109a8578063efef39a114610a0b578063f76f8d7814610a23575b600080fd5b341561016457600080fd5b61016c610ab1565b6040518082815260200191505060405180910390f35b341561018d57600080fd5b610195610ab7565b6040518080602001828103825283818151815260200191508051906020019080838360005b838110156101d55780820151818401526020810190506101ba565b50505050905090810190601f1680156102025780820380516001836020036101000a031916815260200191505b509250505060405180910390f35b341561021b57600080fd5b610250600480803573ffffffffffffffffffffffffffffffffffffffff16906020019091908035906020019091905050610afa565b005b341561025d57600080fd5b610265610bca565b604051808273ffffffffffffffffffffffffffffffffffffffff1673ffffffffffffffffffffffffffffffffffffffff16815260200191505060405180910390f35b34156102b257600080fd5b6102de600480803573ffffffffffffffffffffffffffffffffffffffff16906020019091905050610bf0565b005b34156102eb57600080fd5b6102f3610cb0565b604051808215151515815260200191505060405180910390f35b341561031857600080fd5b610320610cb9565b6040518082815260200191505060405180910390f35b341561034157600080fd5b6103576004808035906020019091905050610cc6565b60405180878152602001806020018681526020018573ffffffffffffffffffffffffffffffffffffffff1673ffffffffffffffffffffffffffffffffffffffff168152602001848152602001838152602001828103825287818151815260200191508051906020019080838360005b838110156103e15780820151818401526020810190506103c6565b50505050905090810190601f16801561040e5780820380516001836020036101000a031916815260200191505b5097505050505050505060405180910390f35b341561042c57600080fd5b610480600480803573ffffffffffffffffffffffffffffffffffffffff1690602001909190803573ffffffffffffffffffffffffffffffffffffffff16906020019091908035906020019091905050610dfd565b005b341561048d57600080fd5b6104b9600480803573ffffffffffffffffffffffffffffffffffffffff16906020019091905050610e4b565b005b34156104c657600080fd5b6104f2600480803573ffffffffffffffffffffffffffffffffffffffff16906020019091905050610f27565b005b34156104ff57600080fd5b6105156004808035906020019091905050611003565b604051808273ffffffffffffffffffffffffffffffffffffffff1673ffffffffffffffffffffffffffffffffffffffff16815260200191505060405180910390f35b341561056257600080fd5b6105c4600480803590602001908201803590602001908080601f0160208091040260200160405190810160405280939291908181526020018383808284378201915050505050509190803590602001909190803590602001909190505061107c565b005b34156105d157600080fd5b6105fd600480803573ffffffffffffffffffffffffffffffffffffffff169060200190919050506110ec565b6040518082815260200191505060405180910390f35b341561061e57600080fd5b61064a600480803573ffffffffffffffffffffffffffffffffffffffff16906020019091905050611135565b6040518080602001828103825283818151815260200191508051906020019060200280838360005b8381101561068d578082015181840152602081019050610672565b505050509050019250505060405180910390f35b34156106ac57600080fd5b6106c2600480803590602001909190505061126c565b604051808273ffffffffffffffffffffffffffffffffffffffff1673ffffffffffffffffffffffffffffffffffffffff16815260200191505060405180910390f35b341561070f57600080fd5b610799600480803573ffffffffffffffffffffffffffffffffffffffff1690602001909190803590602001908201803590602001908080601f0160208091040260200160405190810160405280939291908181526020018383808284378201915050505050509190803590602001909190803590602001909190803590602001909190505061129f565b005b34156107a657600080fd5b6107ae611392565b6040518080602001828103825283818151815260200191508051906020019080838360005b838110156107ee5780820151818401526020810190506107d3565b50505050905090810190601f16801561081b5780820380516001836020036101000a031916815260200191505b509250505060405180910390f35b341561083457600080fd5b61083c6113d5565b6040518080602001828103825283818151815260200191508051906020019080838360005b8381101561087c578082015181840152602081019050610861565b50505050905090810190601f1680156108a95780820380516001836020036101000a031916815260200191505b509250505060405180910390f35b34156108c257600080fd5b6108f7600480803573ffffffffffffffffffffffffffffffffffffffff1690602001909190803590602001909190505061140e565b005b341561090457600080fd5b61090c611446565b604051808273ffffffffffffffffffffffffffffffffffffffff1673ffffffffffffffffffffffffffffffffffffffff16815260200191505060405180910390f35b341561095957600080fd5b61096f600480803590602001909190505061146c565b005b341561097c57600080fd5b61099260048080359060200190919050506114e1565b6040518082815260200191505060405180910390f35b34156109b357600080fd5b6109c960048080359060200190919050506114fe565b604051808273ffffffffffffffffffffffffffffffffffffffff1673ffffffffffffffffffffffffffffffffffffffff16815260200191505060405180910390f35b610a216004808035906020019091905050611531565b005b3415610a2e57600080fd5b610a36611910565b6040518080602001828103825283818151815260200191508051906020019080838360005b83811015610a76578082015181840152602081019050610a5b565b50505050905090810190601f168015610aa35780820380516001836020036101000a031916815260200191505b509250505060405180910390f35b600b5481565b610abf6121bc565b6040805190810160405280601381526020017f43727970746f4b6f74616b75506f775a6f6e6500000000000000000000000000815250905090565b610b043382611949565b1515610b0f57600080fd5b816007600083815260200190815260200160002060006101000a81548173ffffffffffffffffffffffffffffffffffffffff021916908373ffffffffffffffffffffffffffffffffffffffff1602179055508173ffffffffffffffffffffffffffffffffffffffff163373ffffffffffffffffffffffffffffffffffffffff167f8c5be1e5ebec7d5bd14f71427d1e84f3dd0314c0f7b2291e5b200ac8c7c3b925836040518082815260200191505060405180910390a35050565b600960009054906101000a900473ffffffffffffffffffffffffffffffffffffffff1681565b600960009054906101000a900473ffffffffffffffffffffffffffffffffffffffff1673ffffffffffffffffffffffffffffffffffffffff163373ffffffffffffffffffffffffffffffffffffffff161480610c995750600a60009054906101000a900473ffffffffffffffffffffffffffffffffffffffff1673ffffffffffffffffffffffffffffffffffffffff163373ffffffffffffffffffffffffffffffffffffffff16145b1515610ca457600080fd5b610cad816119b5565b50565b60006001905090565b6000600c80549050905090565b6000610cd06121bc565b6000806000806000600c88815481101515610ce757fe5b90600052602060002090600302019050879650806000018054600181600116156101000203166002900480601f016020809104026020016040519081016040528092919081815260200182805460018160011615610100020316600290048015610d925780601f10610d6757610100808354040283529160200191610d92565b820191906000526020600020905b815481529060010190602001808311610d7557829003601f168201915b50505050509550600860008981526020019081526020016000205494506005600089815260200190815260200160002060009054906101000a900473ffffffffffffffffffffffffffffffffffffffff16935080600101549250806002015491505091939550919395565b610e078382611949565b1515610e1257600080fd5b610e1c8282611ac3565b1515610e2757600080fd5b610e3082611b2f565b1515610e3b57600080fd5b610e46838383611b68565b505050565b600960009054906101000a900473ffffffffffffffffffffffffffffffffffffffff1673ffffffffffffffffffffffffffffffffffffffff163373ffffffffffffffffffffffffffffffffffffffff16141515610ea757600080fd5b600073ffffffffffffffffffffffffffffffffffffffff168173ffffffffffffffffffffffffffffffffffffffff1614151515610ee357600080fd5b80600960006101000a81548173ffffffffffffffffffffffffffffffffffffffff021916908373ffffffffffffffffffffffffffffffffffffffff16021790555050565b600960009054906101000a900473ffffffffffffffffffffffffffffffffffffffff1673ffffffffffffffffffffffffffffffffffffffff163373ffffffffffffffffffffffffffffffffffffffff16141515610f8357600080fd5b600073ffffffffffffffffffffffffffffffffffffffff168173ffffffffffffffffffffffffffffffffffffffff1614151515610fbf57600080fd5b80600a60006101000a81548173ffffffffffffffffffffffffffffffffffffffff021916908373ffffffffffffffffffffffffffffffffffffffff16021790555050565b60006005600083815260200190815260200160002060009054906101000a900473ffffffffffffffffffffffffffffffffffffffff169050600073ffffffffffffffffffffffffffffffffffffffff168173ffffffffffffffffffffffffffffffffffffffff161415151561107757600080fd5b919050565b600a60009054906101000a900473ffffffffffffffffffffffffffffffffffffffff1673ffffffffffffffffffffffffffffffffffffffff163373ffffffffffffffffffffffffffffffffffffffff161415156110d857600080fd5b6110e783306002548585611d6a565b505050565b6000600660008373ffffffffffffffffffffffffffffffffffffffff1673ffffffffffffffffffffffffffffffffffffffff168152602001908152602001600020549050919050565b61113d6121d0565b60006111476121d0565b6000806000611155876110ec565b9450600085141561118757600060405180591061116f5750595b90808252806020026020018201604052509550611262565b846040518059106111955750595b908082528060200260200182016040525093506111b0610cb9565b925060009150600090505b828111151561125e578673ffffffffffffffffffffffffffffffffffffffff166005600083815260200190815260200160002060009054906101000a900473ffffffffffffffffffffffffffffffffffffffff1673ffffffffffffffffffffffffffffffffffffffff1614156112515780848381518110151561123a57fe5b906020019060200201818152505081806001019250505b80806001019150506111bb565b8395505b5050505050919050565b60076020528060005260406000206000915054906101000a900473ffffffffffffffffffffffffffffffffffffffff1681565b6000600a60009054906101000a900473ffffffffffffffffffffffffffffffffffffffff1673ffffffffffffffffffffffffffffffffffffffff163373ffffffffffffffffffffffffffffffffffffffff161415156112fd57600080fd5b859050600073ffffffffffffffffffffffffffffffffffffffff168173ffffffffffffffffffffffffffffffffffffffff16141561135b57600a60009054906101000a900473ffffffffffffffffffffffffffffffffffffffff1690505b60008411151561136b5760025493505b600b6000815480929190600101919050555061138a8582868686611d6a565b505050505050565b61139a6121bc565b6040805190810160405280600781526020017f506f775a6f6e6500000000000000000000000000000000000000000000000000815250905090565b6040805190810160405280601381526020017f43727970746f4b6f74616b75506f775a6f6e650000000000000000000000000081525081565b6114183382611949565b151561142357600080fd5b61142c82611b2f565b151561143757600080fd5b611442338383611b68565b5050565b600a60009054906101000a900473ffffffffffffffffffffffffffffffffffffffff1681565b6000803391506005600084815260200190815260200160002060009054906101000a900473ffffffffffffffffffffffffffffffffffffffff1690506114b182611b2f565b15156114bc57600080fd5b6114c68284611ac3565b15156114d157600080fd5b6114dc818385611b68565b505050565b600060086000838152602001908152602001600020549050919050565b60056020528060005260406000206000915054906101000a900473ffffffffffffffffffffffffffffffffffffffff1681565b60008060008060008060006005600089815260200190815260200160002060009054906101000a900473ffffffffffffffffffffffffffffffffffffffff169650339550600860008981526020019081526020016000205494508573ffffffffffffffffffffffffffffffffffffffff168773ffffffffffffffffffffffffffffffffffffffff16141515156115c657600080fd5b6115cf86611b2f565b15156115da57600080fd5b8434101515156115e957600080fd5b6115fe6115f7866005611f0d565b6064611f48565b935061161561160e86600a611f0d565b6064611f48565b925082848587030303915061162a3486611f63565b90506003548510156116675761164b6116448660c8611f0d565b6064611f48565b600860008a8152602001908152602001600020819055506116d0565b6004548510156116a25761168661167f8660b4611f0d565b6064611f48565b600860008a8152602001908152602001600020819055506116cf565b6116b76116b0866096611f0d565b6064611f48565b600860008a8152602001908152602001600020819055505b5b6116db87878a611b68565b7e8201e7bcbf010c2c07de59d6e97cb7e3cf67a46125c49cbc89b9d2cde1f48f8886600860008c8152602001908152602001600020548a8a600c8e81548110151561172257fe5b9060005260206000209060030201600001604051808781526020018681526020018581526020018473ffffffffffffffffffffffffffffffffffffffff1673ffffffffffffffffffffffffffffffffffffffff1681526020018373ffffffffffffffffffffffffffffffffffffffff1673ffffffffffffffffffffffffffffffffffffffff168152602001806020018281038252838181546001816001161561010002031660029004815260200191508054600181600116156101000203166002900480156118325780601f1061180757610100808354040283529160200191611832565b820191906000526020600020905b81548152906001019060200180831161181557829003601f168201915b505097505050505050505060405180910390a13073ffffffffffffffffffffffffffffffffffffffff168773ffffffffffffffffffffffffffffffffffffffff161415156118bb578673ffffffffffffffffffffffffffffffffffffffff166108fc839081150290604051600060405180830381858888f1935050505015156118ba57600080fd5b5b3373ffffffffffffffffffffffffffffffffffffffff166108fc829081150290604051600060405180830381858888f1935050505015156118fb57600080fd5b61190684848a611f7c565b5050505050505050565b6040805190810160405280600781526020017f506f775a6f6e650000000000000000000000000000000000000000000000000081525081565b60006005600083815260200190815260200160002060009054906101000a900473ffffffffffffffffffffffffffffffffffffffff1673ffffffffffffffffffffffffffffffffffffffff168373ffffffffffffffffffffffffffffffffffffffff1614905092915050565b600073ffffffffffffffffffffffffffffffffffffffff168173ffffffffffffffffffffffffffffffffffffffff161415611a6857600960009054906101000a900473ffffffffffffffffffffffffffffffffffffffff1673ffffffffffffffffffffffffffffffffffffffff166108fc3073ffffffffffffffffffffffffffffffffffffffff16319081150290604051600060405180830381858888f193505050501515611a6357600080fd5b611ac0565b8073ffffffffffffffffffffffffffffffffffffffff166108fc3073ffffffffffffffffffffffffffffffffffffffff16319081150290604051600060405180830381858888f193505050501515611abf57600080fd5b5b50565b60008273ffffffffffffffffffffffffffffffffffffffff166007600084815260200190815260200160002060009054906101000a900473ffffffffffffffffffffffffffffffffffffffff1673ffffffffffffffffffffffffffffffffffffffff1614905092915050565b60008073ffffffffffffffffffffffffffffffffffffffff168273ffffffffffffffffffffffffffffffffffffffff1614159050919050565b600660008373ffffffffffffffffffffffffffffffffffffffff1673ffffffffffffffffffffffffffffffffffffffff16815260200190815260200160002060008154809291906001019190505550816005600083815260200190815260200160002060006101000a81548173ffffffffffffffffffffffffffffffffffffffff021916908373ffffffffffffffffffffffffffffffffffffffff160217905550600073ffffffffffffffffffffffffffffffffffffffff168373ffffffffffffffffffffffffffffffffffffffff16141515611cc657600660008473ffffffffffffffffffffffffffffffffffffffff1673ffffffffffffffffffffffffffffffffffffffff16815260200190815260200160002060008154809291906001900391905055506007600082815260200190815260200160002060006101000a81549073ffffffffffffffffffffffffffffffffffffffff02191690555b7fddf252ad1be2c89b69c2b068fc378daa952ba7f163c4a11628f55a4df523b3ef838383604051808473ffffffffffffffffffffffffffffffffffffffff1673ffffffffffffffffffffffffffffffffffffffff1681526020018373ffffffffffffffffffffffffffffffffffffffff1673ffffffffffffffffffffffffffffffffffffffff168152602001828152602001935050505060405180910390a1505050565b611d726121e4565b60006060604051908101604052808881526020018581526020018481525091506001600c8054806001018281611da8919061220c565b916000526020600020906003020160008590919091506000820151816000019080519060200190611dda92919061223e565b50602082015181600101556040820151816002015550500390508063ffffffff1681141515611e0857600080fd5b7fb3b0cf861f168bcdb275c69da97b2543631552ba562628aa3c7317d4a6089ef281888860405180848152602001806020018373ffffffffffffffffffffffffffffffffffffffff1673ffffffffffffffffffffffffffffffffffffffff168152602001828103825284818151815260200191508051906020019080838360005b83811015611ea4578082015181840152602081019050611e89565b50505050905090810190601f168015611ed15780820380516001836020036101000a031916815260200191505b5094505050505060405180910390a1846008600083815260200190815260200160002081905550611f0460008783611b68565b50505050505050565b6000806000841415611f225760009150611f41565b8284029050828482811515611f3357fe5b04141515611f3d57fe5b8091505b5092915050565b6000808284811515611f5657fe5b0490508091505092915050565b6000828211151515611f7157fe5b818303905092915050565b6000806000806000809054906101000a900473ffffffffffffffffffffffffffffffffffffffff169350600160009054906101000a900473ffffffffffffffffffffffffffffffffffffffff1692508373ffffffffffffffffffffffffffffffffffffffff1663ab22a640600c87815481101515611ff657fe5b9060005260206000209060030201600101546000604051602001526040518263ffffffff167c010000000000000000000000000000000000000000000000000000000002815260040180828152602001915050602060405180830381600087803b151561206257600080fd5b6102c65a03f1151561207357600080fd5b5050506040518051905091508273ffffffffffffffffffffffffffffffffffffffff1663337176cd600c878154811015156120aa57fe5b9060005260206000209060030201600201546000604051602001526040518263ffffffff167c010000000000000000000000000000000000000000000000000000000002815260040180828152602001915050602060405180830381600087803b151561211657600080fd5b6102c65a03f1151561212757600080fd5b5050506040518051905090508173ffffffffffffffffffffffffffffffffffffffff166108fc889081150290604051600060405180830381858888f19350505050151561217357600080fd5b8073ffffffffffffffffffffffffffffffffffffffff166108fc879081150290604051600060405180830381858888f1935050505015156121b357600080fd5b50505050505050565b602060405190810160405280600081525090565b602060405190810160405280600081525090565b6060604051908101604052806121f86122be565b815260200160008152602001600081525090565b8154818355818115116122395760030281600302836000526020600020918201910161223891906122d2565b5b505050565b828054600181600116156101000203166002900490600052602060002090601f016020900481019282601f1061227f57805160ff19168380011785556122ad565b828001600101855582156122ad579182015b828111156122ac578251825591602001919060010190612291565b5b5090506122ba9190612311565b5090565b602060405190810160405280600081525090565b61230e91905b8082111561230a57600080820160006122f19190612336565b60018201600090556002820160009055506003016122d8565b5090565b90565b61233391905b8082111561232f576000816000905550600101612317565b5090565b90565b50805460018160011615610100020316600290046000825580601f1061235c575061237b565b601f01602090049060005260206000209081019061237a9190612311565b5b505600a165627a7a72305820fbc2dcc8d0a0ae6f3201703a62fc25401af31e366bec42b9be87b1d24f66dba00029",
  "source": "pragma solidity ^0.4.18; // solhint-disable-line\n\n\n\n/// @title Interface for contracts conforming to ERC-721: Non-Fungible Tokens\n/// @author Dieter Shirley <dete@axiomzen.co> (https://github.com/dete)\ncontract ERC721 {\n  // Required methods\n  function approve(address _to, uint256 _tokenId) public;\n  function balanceOf(address _owner) public view returns (uint256 balance);\n  function implementsERC721() public pure returns (bool);\n  function ownerOf(uint256 _tokenId) public view returns (address addr);\n  function takeOwnership(uint256 _tokenId) public;\n  function totalSupply() public view returns (uint256 total);\n  function transferFrom(address _from, address _to, uint256 _tokenId) public;\n  function transfer(address _to, uint256 _tokenId) public;\n\n  event Transfer(address indexed from, address indexed to, uint256 tokenId);\n  event Approval(address indexed owner, address indexed approved, uint256 tokenId);\n\n  // Optional\n  // function name() public view returns (string name);\n  // function symbol() public view returns (string symbol);\n  // function tokenOfOwnerByIndex(address _owner, uint256 _index) external view returns (uint256 tokenId);\n  // function tokenMetadata(uint256 _tokenId) public view returns (string infoUrl);\n}\n\n\ncontract PowZoneToken is ERC721 {\n\n  address cryptoVideoGames = 0x98069621Fd7daDb3f2D862b78a4f7D22eB08A80a; \n  address cryptoVideoGameItems = 0xd0E06483A2CDa9923bbD43e30D89A6BBe1A6F4A0;\n\n  /*** EVENTS ***/\n\n  /// @dev The Birth event is fired whenever a new pow comes into existence.\n  event Birth(uint256 tokenId, string name, address owner);\n\n  /// @dev The TokenSold event is fired whenever a token is sold.\n  event TokenSold(uint256 tokenId, uint256 oldPrice, uint256 newPrice, address prevOwner, address winner, string name);\n\n  /// @dev Transfer event as defined in current draft of ERC721. \n  ///  ownership is assigned, including births.\n  event Transfer(address from, address to, uint256 tokenId);\n\n  /*** CONSTANTS ***/\n\n  /// @notice Name and symbol of the non fungible token, as defined in ERC721.\n  string public constant NAME = \"CryptoKotakuPowZone\"; // solhint-disable-line\n  string public constant SYMBOL = \"PowZone\"; // solhint-disable-line\n\n  uint256 private startingPrice = 0.005 ether;\n  uint256 private firstStepLimit =  0.05 ether;\n  uint256 private secondStepLimit = 0.5 ether;\n\n  /*** STORAGE ***/\n\n  /// @dev A mapping from pow IDs to the address that owns them. All pows have\n  ///  some valid owner address.\n  mapping (uint256 => address) public powIndexToOwner;\n\n  // @dev A mapping from owner address to count of tokens that address owns.\n  //  Used internally inside balanceOf() to resolve ownership count.\n  mapping (address => uint256) private ownershipTokenCount;\n\n  /// @dev A mapping from PowIDs to an address that has been approved to call\n  ///  transferFrom(). Each Pow can only have one approved address for transfer\n  ///  at any time. A zero value means no approval is outstanding.\n  mapping (uint256 => address) public powIndexToApproved;\n\n  // @dev A mapping from PowIDs to the price of the token.\n  mapping (uint256 => uint256) private powIndexToPrice;\n\n  // The addresses of the accounts (or contracts) that can execute actions within each roles.\n  address public ceoAddress;\n  address public cooAddress;\n\n  uint256 public promoCreatedCount;\n\n  /*** DATATYPES ***/\n  struct Pow {\n    string name;\n    uint gameId;\n    uint gameItemId;\n  }\n\n  Pow[] private pows;\n\n  /*** ACCESS MODIFIERS ***/\n  /// @dev Access modifier for CEO-only functionality\n  modifier onlyCEO() {\n    require(msg.sender == ceoAddress);\n    _;\n  }\n\n  /// @dev Access modifier for COO-only functionality\n  modifier onlyCOO() {\n    require(msg.sender == cooAddress);\n    _;\n  }\n\n  /// Access modifier for contract owner only functionality\n  modifier onlyCLevel() {\n    require(\n      msg.sender == ceoAddress ||\n      msg.sender == cooAddress\n    );\n    _;\n  }\n\n  /*** CONSTRUCTOR ***/\n  function PowZoneToken() public {\n    ceoAddress = msg.sender;\n    cooAddress = msg.sender;\n  }\n\n  /*** PUBLIC FUNCTIONS ***/\n  /// @notice Grant another address the right to transfer token via takeOwnership() and transferFrom().\n  /// @param _to The address to be granted transfer approval. Pass address(0) to\n  ///  clear all approvals.\n  /// @param _tokenId The ID of the Token that can be transferred if this call succeeds.\n  /// @dev Required for ERC-721 compliance.\n  function approve(\n    address _to,\n    uint256 _tokenId\n  ) public {\n    // Caller must own token.\n    require(_owns(msg.sender, _tokenId));\n\n    powIndexToApproved[_tokenId] = _to;\n\n    Approval(msg.sender, _to, _tokenId);\n  }\n\n  /// For querying balance of a particular account\n  /// @param _owner The address for balance query\n  /// @dev Required for ERC-721 compliance.\n  function balanceOf(address _owner) public view returns (uint256 balance) {\n    return ownershipTokenCount[_owner];\n  }\n\n  /// @dev Creates a new promo Pow with the given name, with given _price and assignes it to an address.\n  function createPromoPow(address _owner, string _name, uint256 _price, uint _gameId, uint _gameItemId) public onlyCOO {\n\n    address powOwner = _owner;\n    if (powOwner == address(0)) {\n      powOwner = cooAddress;\n    }\n\n    if (_price <= 0) {\n      _price = startingPrice;\n    }\n\n    promoCreatedCount++;\n    _createPow(_name, powOwner, _price, _gameId, _gameItemId);\n  }\n\n  /// @dev Creates a new Pow with the given name.\n  function createContractPow(string _name, uint _gameId, uint _gameItemId) public onlyCOO {\n    _createPow(_name, address(this), startingPrice, _gameId, _gameItemId);\n  }\n\n  /// @notice Returns all the relevant information about a specific pow.\n  /// @param _tokenId The tokenId of the pow of interest.\n  function getPow(uint256 _tokenId) public view returns (\n    uint256 Id,\n    string powName,\n    uint256 sellingPrice,\n    address owner,\n    uint gameId,\n    uint gameItemId\n  ) {\n    Pow storage pow = pows[_tokenId];\n    Id = _tokenId;\n    powName = pow.name;\n    sellingPrice = powIndexToPrice[_tokenId];\n    owner = powIndexToOwner[_tokenId];\n    gameId = pow.gameId;\n    gameItemId = pow.gameItemId;\n  }\n\n  function implementsERC721() public pure returns (bool) {\n    return true;\n  }\n\n  /// @dev Required for ERC-721 compliance.\n  function name() public pure returns (string) {\n    return NAME;\n  }\n\n  /// For querying owner of token\n  /// @param _tokenId The tokenID for owner inquiry\n  /// @dev Required for ERC-721 compliance.\n  function ownerOf(uint256 _tokenId)\n    public\n    view\n    returns (address owner)\n  {\n    owner = powIndexToOwner[_tokenId];\n    require(owner != address(0));\n  }\n\n  function payout(address _to) public onlyCLevel {\n    _payout(_to);\n  }\n\n  // Allows someone to send ether and obtain the token\n  function purchase(uint256 _tokenId) public payable {\n    address oldOwner = powIndexToOwner[_tokenId];\n    address newOwner = msg.sender;\n\n    uint256 sellingPrice = powIndexToPrice[_tokenId];\n\n    // Making sure token owner is not sending to self\n    require(oldOwner != newOwner);\n\n    // Safety check to prevent against an unexpected 0x0 default.\n    require(_addressNotNull(newOwner));\n\n    // Making sure sent amount is greater than or equal to the sellingPrice\n    require(msg.value >= sellingPrice);\n\n    uint256 gameOwnerPayment = uint256(SafeMath.div(SafeMath.mul(sellingPrice, 5), 100));\n    uint256 gameItemOwnerPayment = uint256(SafeMath.div(SafeMath.mul(sellingPrice, 10), 100));\n    uint256 payment =  sellingPrice - gameOwnerPayment - gameOwnerPayment - gameItemOwnerPayment;\n    uint256 purchaseExcess = SafeMath.sub(msg.value,sellingPrice);\n\n    // Update prices\n    if (sellingPrice < firstStepLimit) {\n      // first stage\n      powIndexToPrice[_tokenId] = SafeMath.div(SafeMath.mul(sellingPrice, 200), 100);\n    } else if (sellingPrice < secondStepLimit) {\n      // second stage\n      powIndexToPrice[_tokenId] = SafeMath.div(SafeMath.mul(sellingPrice, 180), 100);\n    } else {\n      // third stage\n      powIndexToPrice[_tokenId] = SafeMath.div(SafeMath.mul(sellingPrice, 150), 100);\n    }\n\n    _transfer(oldOwner, newOwner, _tokenId);\n    TokenSold(_tokenId, sellingPrice, powIndexToPrice[_tokenId], oldOwner, newOwner, pows[_tokenId].name);\n\n    // Pay previous tokenOwner if owner is not contract\n    if (oldOwner != address(this)) {\n      oldOwner.transfer(payment); //(1-0.2)\n    }\n    \n    msg.sender.transfer(purchaseExcess);\n    _transferDivs(gameOwnerPayment, gameItemOwnerPayment, _tokenId);\n    \n  }\n\n  /// Divident distributions\n  function _transferDivs(uint256 _gameOwnerPayment, uint256 _gameItemOwnerPayment, uint256 _tokenId) private {\n    CryptoVideoGames gamesContract = CryptoVideoGames(cryptoVideoGames);\n    CryptoVideoGameItem gameItemContract = CryptoVideoGameItem(cryptoVideoGameItems);\n    address gameOwner = gamesContract.getVideoGameOwner(pows[_tokenId].gameId);\n    address gameItemOwner = gameItemContract.getVideoGameItemOwner(pows[_tokenId].gameItemId);\n    gameOwner.transfer(_gameOwnerPayment);\n    gameItemOwner.transfer(_gameItemOwnerPayment);\n  }\n\n  function priceOf(uint256 _tokenId) public view returns (uint256 price) {\n    return powIndexToPrice[_tokenId];\n  }\n\n  /// @dev Assigns a new address to act as the CEO. Only available to the current CEO.\n  /// @param _newCEO The address of the new CEO\n  function setCEO(address _newCEO) public onlyCEO {\n    require(_newCEO != address(0));\n\n    ceoAddress = _newCEO;\n  }\n\n  /// @dev Assigns a new address to act as the COO. Only available to the current COO.\n  /// @param _newCOO The address of the new COO\n  function setCOO(address _newCOO) public onlyCEO {\n    require(_newCOO != address(0));\n\n    cooAddress = _newCOO;\n  }\n\n  /// @dev Required for ERC-721 compliance.\n  function symbol() public pure returns (string) {\n    return SYMBOL;\n  }\n\n  /// @notice Allow pre-approved user to take ownership of a token\n  /// @param _tokenId The ID of the Token that can be transferred if this call succeeds.\n  /// @dev Required for ERC-721 compliance.\n  function takeOwnership(uint256 _tokenId) public {\n    address newOwner = msg.sender;\n    address oldOwner = powIndexToOwner[_tokenId];\n\n    // Safety check to prevent against an unexpected 0x0 default.\n    require(_addressNotNull(newOwner));\n\n    // Making sure transfer is approved\n    require(_approved(newOwner, _tokenId));\n\n    _transfer(oldOwner, newOwner, _tokenId);\n  }\n\n  /// @param _owner The owner whose pow tokens we are interested in.\n  /// @dev This method MUST NEVER be called by smart contract code. First, it's fairly\n  ///  expensive (it walks the entire pows array looking for pows belonging to owner),\n  ///  but it also returns a dynamic array, which is only supported for web3 calls, and\n  ///  not contract-to-contract calls.\n  function tokensOfOwner(address _owner) public view returns(uint256[] ownerTokens) {\n    uint256 tokenCount = balanceOf(_owner);\n    if (tokenCount == 0) {\n        // Return an empty array\n      return new uint256[](0);\n    } else {\n      uint256[] memory result = new uint256[](tokenCount);\n      uint256 totalPows = totalSupply();\n      uint256 resultIndex = 0;\n\n      uint256 powId;\n      for (powId = 0; powId <= totalPows; powId++) {\n        if (powIndexToOwner[powId] == _owner) {\n          result[resultIndex] = powId;\n          resultIndex++;\n        }\n      }\n      return result;\n    }\n  }\n\n  /// For querying totalSupply of token\n  /// @dev Required for ERC-721 compliance.\n  function totalSupply() public view returns (uint256 total) {\n    return pows.length;\n  }\n\n  /// Owner initates the transfer of the token to another account\n  /// @param _to The address for the token to be transferred to.\n  /// @param _tokenId The ID of the Token that can be transferred if this call succeeds.\n  /// @dev Required for ERC-721 compliance.\n  function transfer(\n    address _to,\n    uint256 _tokenId\n  ) public {\n    require(_owns(msg.sender, _tokenId));\n    require(_addressNotNull(_to));\n\n    _transfer(msg.sender, _to, _tokenId);\n  }\n\n  /// Third-party initiates transfer of token from address _from to address _to\n  /// @param _from The address for the token to be transferred from.\n  /// @param _to The address for the token to be transferred to.\n  /// @param _tokenId The ID of the Token that can be transferred if this call succeeds.\n  /// @dev Required for ERC-721 compliance.\n  function transferFrom(\n    address _from,\n    address _to,\n    uint256 _tokenId\n  ) public {\n    require(_owns(_from, _tokenId));\n    require(_approved(_to, _tokenId));\n    require(_addressNotNull(_to));\n\n    _transfer(_from, _to, _tokenId);\n  }\n\n  /*** PRIVATE FUNCTIONS ***/\n  /// Safety check on _to address to prevent against an unexpected 0x0 default.\n  function _addressNotNull(address _to) private pure returns (bool) {\n    return _to != address(0);\n  }\n\n  /// For checking approval of transfer for address _to\n  function _approved(address _to, uint256 _tokenId) private view returns (bool) {\n    return powIndexToApproved[_tokenId] == _to;\n  }\n\n  /// For creating Pow\n  function _createPow(string _name, address _owner, uint256 _price, uint _gameId, uint _gameItemId) private {\n    Pow memory _pow = Pow({\n      name: _name,\n      gameId: _gameId,\n      gameItemId: _gameItemId\n    });\n    uint256 newPowId = pows.push(_pow) - 1;\n\n    // It's probably never going to happen, 4 billion tokens are A LOT, but\n    // let's just be 100% sure we never let this happen.\n    require(newPowId == uint256(uint32(newPowId)));\n\n    Birth(newPowId, _name, _owner);\n\n    powIndexToPrice[newPowId] = _price;\n\n    // This will assign ownership, and also emit the Transfer event as\n    // per ERC721 draft\n    _transfer(address(0), _owner, newPowId);\n  }\n\n  /// Check for token ownership\n  function _owns(address claimant, uint256 _tokenId) private view returns (bool) {\n    return claimant == powIndexToOwner[_tokenId];\n  }\n\n  /// For paying out balance on contract\n  function _payout(address _to) private {\n    if (_to == address(0)) {\n      ceoAddress.transfer(this.balance);\n    } else {\n      _to.transfer(this.balance);\n    }\n  }\n\n  /// @dev Assigns ownership of a specific Pow to an address.\n  function _transfer(address _from, address _to, uint256 _tokenId) private {\n    // Since the number of pow is capped to 2^32 we can't overflow this\n    ownershipTokenCount[_to]++;\n    //transfer ownership\n    powIndexToOwner[_tokenId] = _to;\n\n    // When creating new pows _from is 0x0, but we can't account that address.\n    if (_from != address(0)) {\n      ownershipTokenCount[_from]--;\n      // clear any previously approved ownership exchange\n      delete powIndexToApproved[_tokenId];\n    }\n\n    // Emit the transfer event.\n    Transfer(_from, _to, _tokenId);\n  }\n\n}\nlibrary SafeMath {\n\n  /**\n  * @dev Multiplies two numbers, throws on overflow.\n  */\n  function mul(uint256 a, uint256 b) internal pure returns (uint256) {\n    if (a == 0) {\n      return 0;\n    }\n    uint256 c = a * b;\n    assert(c / a == b);\n    return c;\n  }\n\n  /**\n  * @dev Integer division of two numbers, truncating the quotient.\n  */\n  function div(uint256 a, uint256 b) internal pure returns (uint256) {\n    // assert(b > 0); // Solidity automatically throws when dividing by 0\n    uint256 c = a / b;\n    // assert(a == b * c + a % b); // There is no case in which this doesn't hold\n    return c;\n  }\n\n  /**\n  * @dev Substracts two numbers, throws on overflow (i.e. if subtrahend is greater than minuend).\n  */\n  function sub(uint256 a, uint256 b) internal pure returns (uint256) {\n    assert(b <= a);\n    return a - b;\n  }\n\n  /**\n  * @dev Adds two numbers, throws on overflow.\n  */\n  function add(uint256 a, uint256 b) internal pure returns (uint256) {\n    uint256 c = a + b;\n    assert(c >= a);\n    return c;\n  }\n}\n\n\ncontract CryptoVideoGames {\n    // This function will return only the owner address of a specific Video Game\n    function getVideoGameOwner(uint _videoGameId) public view returns(address) {\n    }\n    \n}\n\n\ncontract CryptoVideoGameItem {\n  function getVideoGameItemOwner(uint _videoGameItemId) public view returns(address) {\n    }\n}",
  "sourcePath": "/Users/itru/Desktop/cryptoworkspace/cryptovideogame/truffle/contracts/PowZoneToken.sol",
  "compiler": {
    "name": "solc",
    "version": "0.4.18+commit.9cf6e910.Emscripten.clang"
  },
  "schemaVersion": "1.0.1",
  "updatedAt": "2018-03-04T11:40:59.675Z"
}