{
  "contractName": "PowZoneToken",
  "abi": [
    {
      "constant": true,
      "inputs": [],
      "name": "promoCreatedCount",
      "outputs": [
        {
          "name": "",
          "type": "uint256"
        }
      ],
      "payable": false,
      "stateMutability": "view",
      "type": "function"
    },
    {
      "constant": true,
      "inputs": [],
      "name": "name",
      "outputs": [
        {
          "name": "",
          "type": "string"
        }
      ],
      "payable": false,
      "stateMutability": "pure",
      "type": "function"
    },
    {
      "constant": false,
      "inputs": [
        {
          "name": "_to",
          "type": "address"
        },
        {
          "name": "_tokenId",
          "type": "uint256"
        }
      ],
      "name": "approve",
      "outputs": [],
      "payable": false,
      "stateMutability": "nonpayable",
      "type": "function"
    },
    {
      "constant": true,
      "inputs": [],
      "name": "ceoAddress",
      "outputs": [
        {
          "name": "",
          "type": "address"
        }
      ],
      "payable": false,
      "stateMutability": "view",
      "type": "function"
    },
    {
      "constant": false,
      "inputs": [
        {
          "name": "_to",
          "type": "address"
        }
      ],
      "name": "payout",
      "outputs": [],
      "payable": false,
      "stateMutability": "nonpayable",
      "type": "function"
    },
    {
      "constant": true,
      "inputs": [],
      "name": "implementsERC721",
      "outputs": [
        {
          "name": "",
          "type": "bool"
        }
      ],
      "payable": false,
      "stateMutability": "pure",
      "type": "function"
    },
    {
      "constant": true,
      "inputs": [],
      "name": "totalSupply",
      "outputs": [
        {
          "name": "total",
          "type": "uint256"
        }
      ],
      "payable": false,
      "stateMutability": "view",
      "type": "function"
    },
    {
      "constant": true,
      "inputs": [
        {
          "name": "_tokenId",
          "type": "uint256"
        }
      ],
      "name": "getPow",
      "outputs": [
        {
          "name": "Id",
          "type": "uint256"
        },
        {
          "name": "powName",
          "type": "string"
        },
        {
          "name": "sellingPrice",
          "type": "uint256"
        },
        {
          "name": "owner",
          "type": "address"
        },
        {
          "name": "gameId",
          "type": "uint256"
        },
        {
          "name": "gameItemId",
          "type": "uint256"
        }
      ],
      "payable": false,
      "stateMutability": "view",
      "type": "function"
    },
    {
      "constant": false,
      "inputs": [
        {
          "name": "_from",
          "type": "address"
        },
        {
          "name": "_to",
          "type": "address"
        },
        {
          "name": "_tokenId",
          "type": "uint256"
        }
      ],
      "name": "transferFrom",
      "outputs": [],
      "payable": false,
      "stateMutability": "nonpayable",
      "type": "function"
    },
    {
      "constant": false,
      "inputs": [
        {
          "name": "_newCEO",
          "type": "address"
        }
      ],
      "name": "setCEO",
      "outputs": [],
      "payable": false,
      "stateMutability": "nonpayable",
      "type": "function"
    },
    {
      "constant": false,
      "inputs": [
        {
          "name": "_powId",
          "type": "uint256"
        },
        {
          "name": "_newPrice",
          "type": "uint256"
        }
      ],
      "name": "modifyPowPrice",
      "outputs": [],
      "payable": false,
      "stateMutability": "nonpayable",
      "type": "function"
    },
    {
      "constant": false,
      "inputs": [
        {
          "name": "_newCOO",
          "type": "address"
        }
      ],
      "name": "setCOO",
      "outputs": [],
      "payable": false,
      "stateMutability": "nonpayable",
      "type": "function"
    },
    {
      "constant": true,
      "inputs": [
        {
          "name": "_tokenId",
          "type": "uint256"
        }
      ],
      "name": "ownerOf",
      "outputs": [
        {
          "name": "owner",
          "type": "address"
        }
      ],
      "payable": false,
      "stateMutability": "view",
      "type": "function"
    },
    {
      "constant": false,
      "inputs": [
        {
          "name": "_name",
          "type": "string"
        },
        {
          "name": "_gameId",
          "type": "uint256"
        },
        {
          "name": "_gameItemId",
          "type": "uint256"
        }
      ],
      "name": "createContractPow",
      "outputs": [],
      "payable": false,
      "stateMutability": "nonpayable",
      "type": "function"
    },
    {
      "constant": true,
      "inputs": [
        {
          "name": "_owner",
          "type": "address"
        }
      ],
      "name": "balanceOf",
      "outputs": [
        {
          "name": "balance",
          "type": "uint256"
        }
      ],
      "payable": false,
      "stateMutability": "view",
      "type": "function"
    },
    {
      "constant": true,
      "inputs": [
        {
          "name": "_owner",
          "type": "address"
        }
      ],
      "name": "tokensOfOwner",
      "outputs": [
        {
          "name": "ownerTokens",
          "type": "uint256[]"
        }
      ],
      "payable": false,
      "stateMutability": "view",
      "type": "function"
    },
    {
      "constant": true,
      "inputs": [
        {
          "name": "",
          "type": "uint256"
        }
      ],
      "name": "powIndexToApproved",
      "outputs": [
        {
          "name": "",
          "type": "address"
        }
      ],
      "payable": false,
      "stateMutability": "view",
      "type": "function"
    },
    {
      "constant": false,
      "inputs": [
        {
          "name": "_owner",
          "type": "address"
        },
        {
          "name": "_name",
          "type": "string"
        },
        {
          "name": "_price",
          "type": "uint256"
        },
        {
          "name": "_gameId",
          "type": "uint256"
        },
        {
          "name": "_gameItemId",
          "type": "uint256"
        }
      ],
      "name": "createPromoPow",
      "outputs": [],
      "payable": false,
      "stateMutability": "nonpayable",
      "type": "function"
    },
    {
      "constant": true,
      "inputs": [],
      "name": "symbol",
      "outputs": [
        {
          "name": "",
          "type": "string"
        }
      ],
      "payable": false,
      "stateMutability": "pure",
      "type": "function"
    },
    {
      "constant": true,
      "inputs": [],
      "name": "NAME",
      "outputs": [
        {
          "name": "",
          "type": "string"
        }
      ],
      "payable": false,
      "stateMutability": "view",
      "type": "function"
    },
    {
      "constant": false,
      "inputs": [
        {
          "name": "_to",
          "type": "address"
        },
        {
          "name": "_tokenId",
          "type": "uint256"
        }
      ],
      "name": "transfer",
      "outputs": [],
      "payable": false,
      "stateMutability": "nonpayable",
      "type": "function"
    },
    {
      "constant": true,
      "inputs": [],
      "name": "cooAddress",
      "outputs": [
        {
          "name": "",
          "type": "address"
        }
      ],
      "payable": false,
      "stateMutability": "view",
      "type": "function"
    },
    {
      "constant": false,
      "inputs": [
        {
          "name": "_tokenId",
          "type": "uint256"
        }
      ],
      "name": "takeOwnership",
      "outputs": [],
      "payable": false,
      "stateMutability": "nonpayable",
      "type": "function"
    },
    {
      "constant": true,
      "inputs": [
        {
          "name": "_tokenId",
          "type": "uint256"
        }
      ],
      "name": "priceOf",
      "outputs": [
        {
          "name": "price",
          "type": "uint256"
        }
      ],
      "payable": false,
      "stateMutability": "view",
      "type": "function"
    },
    {
      "constant": true,
      "inputs": [
        {
          "name": "",
          "type": "uint256"
        }
      ],
      "name": "powIndexToOwner",
      "outputs": [
        {
          "name": "",
          "type": "address"
        }
      ],
      "payable": false,
      "stateMutability": "view",
      "type": "function"
    },
    {
      "constant": false,
      "inputs": [
        {
          "name": "_tokenId",
          "type": "uint256"
        }
      ],
      "name": "purchase",
      "outputs": [],
      "payable": true,
      "stateMutability": "payable",
      "type": "function"
    },
    {
      "constant": true,
      "inputs": [],
      "name": "SYMBOL",
      "outputs": [
        {
          "name": "",
          "type": "string"
        }
      ],
      "payable": false,
      "stateMutability": "view",
      "type": "function"
    },
    {
      "inputs": [],
      "payable": false,
      "stateMutability": "nonpayable",
      "type": "constructor"
    },
    {
      "anonymous": false,
      "inputs": [
        {
          "indexed": false,
          "name": "tokenId",
          "type": "uint256"
        },
        {
          "indexed": false,
          "name": "name",
          "type": "string"
        },
        {
          "indexed": false,
          "name": "owner",
          "type": "address"
        }
      ],
      "name": "Birth",
      "type": "event"
    },
    {
      "anonymous": false,
      "inputs": [
        {
          "indexed": false,
          "name": "tokenId",
          "type": "uint256"
        },
        {
          "indexed": false,
          "name": "oldPrice",
          "type": "uint256"
        },
        {
          "indexed": false,
          "name": "newPrice",
          "type": "uint256"
        },
        {
          "indexed": false,
          "name": "prevOwner",
          "type": "address"
        },
        {
          "indexed": false,
          "name": "winner",
          "type": "address"
        },
        {
          "indexed": false,
          "name": "name",
          "type": "string"
        }
      ],
      "name": "TokenSold",
      "type": "event"
    },
    {
      "anonymous": false,
      "inputs": [
        {
          "indexed": false,
          "name": "from",
          "type": "address"
        },
        {
          "indexed": false,
          "name": "to",
          "type": "address"
        },
        {
          "indexed": false,
          "name": "tokenId",
          "type": "uint256"
        }
      ],
      "name": "Transfer",
      "type": "event"
    },
    {
      "anonymous": false,
      "inputs": [
        {
          "indexed": true,
          "name": "owner",
          "type": "address"
        },
        {
          "indexed": true,
          "name": "approved",
          "type": "address"
        },
        {
          "indexed": false,
          "name": "tokenId",
          "type": "uint256"
        }
      ],
      "name": "Approval",
      "type": "event"
    }
  ],
  "bytecode": "0x60606040527398069621fd7dadb3f2d862b78a4f7d22eb08a80a6000806101000a81548173ffffffffffffffffffffffffffffffffffffffff021916908373ffffffffffffffffffffffffffffffffffffffff16021790555073d0e06483a2cda9923bbd43e30d89a6bbe1a6f4a0600160006101000a81548173ffffffffffffffffffffffffffffffffffffffff021916908373ffffffffffffffffffffffffffffffffffffffff1602179055506611c37937e0800060025566b1a2bc2ec500006003556706f05b59d3b2000060045534156100da57600080fd5b33600960006101000a81548173ffffffffffffffffffffffffffffffffffffffff021916908373ffffffffffffffffffffffffffffffffffffffff16021790555033600a60006101000a81548173ffffffffffffffffffffffffffffffffffffffff021916908373ffffffffffffffffffffffffffffffffffffffff1602179055506124798061016b6000396000f30060606040526004361061015f576000357c0100000000000000000000000000000000000000000000000000000000900463ffffffff16806305e455461461016457806306fdde031461018d578063095ea7b31461021b5780630a0f81681461025d5780630b7e9c44146102b25780631051db34146102eb57806318160ddd146103185780631b1d95ff1461034157806323b872dd1461042c57806327d7874c1461048d57806329c1c61e146104c65780632ba73c15146104f25780636352211e1461052b57806363d06dd41461058e57806370a08231146105fd5780638462151c1461064a5780638b115a9e146106d85780638ef0f09a1461073b57806395d89b41146107d2578063a3f4df7e14610860578063a9059cbb146108ee578063b047fb5014610930578063b2e6ceeb14610985578063b9186d7d146109a8578063e330fd92146109df578063efef39a114610a42578063f76f8d7814610a5a575b600080fd5b341561016f57600080fd5b610177610ae8565b6040518082815260200191505060405180910390f35b341561019857600080fd5b6101a0610aee565b6040518080602001828103825283818151815260200191508051906020019080838360005b838110156101e05780820151818401526020810190506101c5565b50505050905090810190601f16801561020d5780820380516001836020036101000a031916815260200191505b509250505060405180910390f35b341561022657600080fd5b61025b600480803573ffffffffffffffffffffffffffffffffffffffff16906020019091908035906020019091905050610b31565b005b341561026857600080fd5b610270610c01565b604051808273ffffffffffffffffffffffffffffffffffffffff1673ffffffffffffffffffffffffffffffffffffffff16815260200191505060405180910390f35b34156102bd57600080fd5b6102e9600480803573ffffffffffffffffffffffffffffffffffffffff16906020019091905050610c27565b005b34156102f657600080fd5b6102fe610ce7565b604051808215151515815260200191505060405180910390f35b341561032357600080fd5b61032b610cf0565b6040518082815260200191505060405180910390f35b341561034c57600080fd5b6103626004808035906020019091905050610cfd565b60405180878152602001806020018681526020018573ffffffffffffffffffffffffffffffffffffffff1673ffffffffffffffffffffffffffffffffffffffff168152602001848152602001838152602001828103825287818151815260200191508051906020019080838360005b838110156103ec5780820151818401526020810190506103d1565b50505050905090810190601f1680156104195780820380516001836020036101000a031916815260200191505b5097505050505050505060405180910390f35b341561043757600080fd5b61048b600480803573ffffffffffffffffffffffffffffffffffffffff1690602001909190803573ffffffffffffffffffffffffffffffffffffffff16906020019091908035906020019091905050610e34565b005b341561049857600080fd5b6104c4600480803573ffffffffffffffffffffffffffffffffffffffff16906020019091905050610e82565b005b34156104d157600080fd5b6104f06004808035906020019091908035906020019091905050610f5e565b005b34156104fd57600080fd5b610529600480803573ffffffffffffffffffffffffffffffffffffffff16906020019091905050610ff6565b005b341561053657600080fd5b61054c60048080359060200190919050506110d2565b604051808273ffffffffffffffffffffffffffffffffffffffff1673ffffffffffffffffffffffffffffffffffffffff16815260200191505060405180910390f35b341561059957600080fd5b6105fb600480803590602001908201803590602001908080601f0160208091040260200160405190810160405280939291908181526020018383808284378201915050505050509190803590602001909190803590602001909190505061114b565b005b341561060857600080fd5b610634600480803573ffffffffffffffffffffffffffffffffffffffff169060200190919050506111bb565b6040518082815260200191505060405180910390f35b341561065557600080fd5b610681600480803573ffffffffffffffffffffffffffffffffffffffff16906020019091905050611204565b6040518080602001828103825283818151815260200191508051906020019060200280838360005b838110156106c45780820151818401526020810190506106a9565b505050509050019250505060405180910390f35b34156106e357600080fd5b6106f9600480803590602001909190505061133b565b604051808273ffffffffffffffffffffffffffffffffffffffff1673ffffffffffffffffffffffffffffffffffffffff16815260200191505060405180910390f35b341561074657600080fd5b6107d0600480803573ffffffffffffffffffffffffffffffffffffffff1690602001909190803590602001908201803590602001908080601f0160208091040260200160405190810160405280939291908181526020018383808284378201915050505050509190803590602001909190803590602001909190803590602001909190505061136e565b005b34156107dd57600080fd5b6107e5611461565b6040518080602001828103825283818151815260200191508051906020019080838360005b8381101561082557808201518184015260208101905061080a565b50505050905090810190601f1680156108525780820380516001836020036101000a031916815260200191505b509250505060405180910390f35b341561086b57600080fd5b6108736114a4565b6040518080602001828103825283818151815260200191508051906020019080838360005b838110156108b3578082015181840152602081019050610898565b50505050905090810190601f1680156108e05780820380516001836020036101000a031916815260200191505b509250505060405180910390f35b34156108f957600080fd5b61092e600480803573ffffffffffffffffffffffffffffffffffffffff169060200190919080359060200190919050506114dd565b005b341561093b57600080fd5b610943611515565b604051808273ffffffffffffffffffffffffffffffffffffffff1673ffffffffffffffffffffffffffffffffffffffff16815260200191505060405180910390f35b341561099057600080fd5b6109a6600480803590602001909190505061153b565b005b34156109b357600080fd5b6109c960048080359060200190919050506115b0565b6040518082815260200191505060405180910390f35b34156109ea57600080fd5b610a0060048080359060200190919050506115cd565b604051808273ffffffffffffffffffffffffffffffffffffffff1673ffffffffffffffffffffffffffffffffffffffff16815260200191505060405180910390f35b610a586004808035906020019091905050611600565b005b3415610a6557600080fd5b610a6d6119df565b6040518080602001828103825283818151815260200191508051906020019080838360005b83811015610aad578082015181840152602081019050610a92565b50505050905090810190601f168015610ada5780820380516001836020036101000a031916815260200191505b509250505060405180910390f35b600b5481565b610af661228b565b6040805190810160405280601381526020017f43727970746f4b6f74616b75506f775a6f6e6500000000000000000000000000815250905090565b610b3b3382611a18565b1515610b4657600080fd5b816007600083815260200190815260200160002060006101000a81548173ffffffffffffffffffffffffffffffffffffffff021916908373ffffffffffffffffffffffffffffffffffffffff1602179055508173ffffffffffffffffffffffffffffffffffffffff163373ffffffffffffffffffffffffffffffffffffffff167f8c5be1e5ebec7d5bd14f71427d1e84f3dd0314c0f7b2291e5b200ac8c7c3b925836040518082815260200191505060405180910390a35050565b600960009054906101000a900473ffffffffffffffffffffffffffffffffffffffff1681565b600960009054906101000a900473ffffffffffffffffffffffffffffffffffffffff1673ffffffffffffffffffffffffffffffffffffffff163373ffffffffffffffffffffffffffffffffffffffff161480610cd05750600a60009054906101000a900473ffffffffffffffffffffffffffffffffffffffff1673ffffffffffffffffffffffffffffffffffffffff163373ffffffffffffffffffffffffffffffffffffffff16145b1515610cdb57600080fd5b610ce481611a84565b50565b60006001905090565b6000600c80549050905090565b6000610d0761228b565b6000806000806000600c88815481101515610d1e57fe5b90600052602060002090600302019050879650806000018054600181600116156101000203166002900480601f016020809104026020016040519081016040528092919081815260200182805460018160011615610100020316600290048015610dc95780601f10610d9e57610100808354040283529160200191610dc9565b820191906000526020600020905b815481529060010190602001808311610dac57829003601f168201915b50505050509550600860008981526020019081526020016000205494506005600089815260200190815260200160002060009054906101000a900473ffffffffffffffffffffffffffffffffffffffff16935080600101549250806002015491505091939550919395565b610e3e8382611a18565b1515610e4957600080fd5b610e538282611b92565b1515610e5e57600080fd5b610e6782611bfe565b1515610e7257600080fd5b610e7d838383611c37565b505050565b600960009054906101000a900473ffffffffffffffffffffffffffffffffffffffff1673ffffffffffffffffffffffffffffffffffffffff163373ffffffffffffffffffffffffffffffffffffffff16141515610ede57600080fd5b600073ffffffffffffffffffffffffffffffffffffffff168173ffffffffffffffffffffffffffffffffffffffff1614151515610f1a57600080fd5b80600960006101000a81548173ffffffffffffffffffffffffffffffffffffffff021916908373ffffffffffffffffffffffffffffffffffffffff16021790555050565b600081111515610f6d57600080fd5b3373ffffffffffffffffffffffffffffffffffffffff166005600084815260200190815260200160002060009054906101000a900473ffffffffffffffffffffffffffffffffffffffff1673ffffffffffffffffffffffffffffffffffffffff16141515610fda57600080fd5b8060086000848152602001908152602001600020819055505050565b600960009054906101000a900473ffffffffffffffffffffffffffffffffffffffff1673ffffffffffffffffffffffffffffffffffffffff163373ffffffffffffffffffffffffffffffffffffffff1614151561105257600080fd5b600073ffffffffffffffffffffffffffffffffffffffff168173ffffffffffffffffffffffffffffffffffffffff161415151561108e57600080fd5b80600a60006101000a81548173ffffffffffffffffffffffffffffffffffffffff021916908373ffffffffffffffffffffffffffffffffffffffff16021790555050565b60006005600083815260200190815260200160002060009054906101000a900473ffffffffffffffffffffffffffffffffffffffff169050600073ffffffffffffffffffffffffffffffffffffffff168173ffffffffffffffffffffffffffffffffffffffff161415151561114657600080fd5b919050565b600a60009054906101000a900473ffffffffffffffffffffffffffffffffffffffff1673ffffffffffffffffffffffffffffffffffffffff163373ffffffffffffffffffffffffffffffffffffffff161415156111a757600080fd5b6111b683306002548585611e39565b505050565b6000600660008373ffffffffffffffffffffffffffffffffffffffff1673ffffffffffffffffffffffffffffffffffffffff168152602001908152602001600020549050919050565b61120c61229f565b600061121661229f565b6000806000611224876111bb565b9450600085141561125657600060405180591061123e5750595b90808252806020026020018201604052509550611331565b846040518059106112645750595b9080825280602002602001820160405250935061127f610cf0565b925060009150600090505b828111151561132d578673ffffffffffffffffffffffffffffffffffffffff166005600083815260200190815260200160002060009054906101000a900473ffffffffffffffffffffffffffffffffffffffff1673ffffffffffffffffffffffffffffffffffffffff1614156113205780848381518110151561130957fe5b906020019060200201818152505081806001019250505b808060010191505061128a565b8395505b5050505050919050565b60076020528060005260406000206000915054906101000a900473ffffffffffffffffffffffffffffffffffffffff1681565b6000600a60009054906101000a900473ffffffffffffffffffffffffffffffffffffffff1673ffffffffffffffffffffffffffffffffffffffff163373ffffffffffffffffffffffffffffffffffffffff161415156113cc57600080fd5b859050600073ffffffffffffffffffffffffffffffffffffffff168173ffffffffffffffffffffffffffffffffffffffff16141561142a57600a60009054906101000a900473ffffffffffffffffffffffffffffffffffffffff1690505b60008411151561143a5760025493505b600b600081548092919060010191905055506114598582868686611e39565b505050505050565b61146961228b565b6040805190810160405280600781526020017f506f775a6f6e6500000000000000000000000000000000000000000000000000815250905090565b6040805190810160405280601381526020017f43727970746f4b6f74616b75506f775a6f6e650000000000000000000000000081525081565b6114e73382611a18565b15156114f257600080fd5b6114fb82611bfe565b151561150657600080fd5b611511338383611c37565b5050565b600a60009054906101000a900473ffffffffffffffffffffffffffffffffffffffff1681565b6000803391506005600084815260200190815260200160002060009054906101000a900473ffffffffffffffffffffffffffffffffffffffff16905061158082611bfe565b151561158b57600080fd5b6115958284611b92565b15156115a057600080fd5b6115ab818385611c37565b505050565b600060086000838152602001908152602001600020549050919050565b60056020528060005260406000206000915054906101000a900473ffffffffffffffffffffffffffffffffffffffff1681565b60008060008060008060006005600089815260200190815260200160002060009054906101000a900473ffffffffffffffffffffffffffffffffffffffff169650339550600860008981526020019081526020016000205494508573ffffffffffffffffffffffffffffffffffffffff168773ffffffffffffffffffffffffffffffffffffffff161415151561169557600080fd5b61169e86611bfe565b15156116a957600080fd5b8434101515156116b857600080fd5b6116cd6116c6866005611fdc565b6064612017565b93506116e46116dd86600a611fdc565b6064612017565b92508284858703030391506116f93486612032565b90506003548510156117365761171a6117138660c8611fdc565b6064612017565b600860008a81526020019081526020016000208190555061179f565b6004548510156117715761175561174e8660b4611fdc565b6064612017565b600860008a81526020019081526020016000208190555061179e565b61178661177f866096611fdc565b6064612017565b600860008a8152602001908152602001600020819055505b5b6117aa87878a611c37565b7e8201e7bcbf010c2c07de59d6e97cb7e3cf67a46125c49cbc89b9d2cde1f48f8886600860008c8152602001908152602001600020548a8a600c8e8154811015156117f157fe5b9060005260206000209060030201600001604051808781526020018681526020018581526020018473ffffffffffffffffffffffffffffffffffffffff1673ffffffffffffffffffffffffffffffffffffffff1681526020018373ffffffffffffffffffffffffffffffffffffffff1673ffffffffffffffffffffffffffffffffffffffff168152602001806020018281038252838181546001816001161561010002031660029004815260200191508054600181600116156101000203166002900480156119015780601f106118d657610100808354040283529160200191611901565b820191906000526020600020905b8154815290600101906020018083116118e457829003601f168201915b505097505050505050505060405180910390a13073ffffffffffffffffffffffffffffffffffffffff168773ffffffffffffffffffffffffffffffffffffffff1614151561198a578673ffffffffffffffffffffffffffffffffffffffff166108fc839081150290604051600060405180830381858888f19350505050151561198957600080fd5b5b3373ffffffffffffffffffffffffffffffffffffffff166108fc829081150290604051600060405180830381858888f1935050505015156119ca57600080fd5b6119d584848a61204b565b5050505050505050565b6040805190810160405280600781526020017f506f775a6f6e650000000000000000000000000000000000000000000000000081525081565b60006005600083815260200190815260200160002060009054906101000a900473ffffffffffffffffffffffffffffffffffffffff1673ffffffffffffffffffffffffffffffffffffffff168373ffffffffffffffffffffffffffffffffffffffff1614905092915050565b600073ffffffffffffffffffffffffffffffffffffffff168173ffffffffffffffffffffffffffffffffffffffff161415611b3757600960009054906101000a900473ffffffffffffffffffffffffffffffffffffffff1673ffffffffffffffffffffffffffffffffffffffff166108fc3073ffffffffffffffffffffffffffffffffffffffff16319081150290604051600060405180830381858888f193505050501515611b3257600080fd5b611b8f565b8073ffffffffffffffffffffffffffffffffffffffff166108fc3073ffffffffffffffffffffffffffffffffffffffff16319081150290604051600060405180830381858888f193505050501515611b8e57600080fd5b5b50565b60008273ffffffffffffffffffffffffffffffffffffffff166007600084815260200190815260200160002060009054906101000a900473ffffffffffffffffffffffffffffffffffffffff1673ffffffffffffffffffffffffffffffffffffffff1614905092915050565b60008073ffffffffffffffffffffffffffffffffffffffff168273ffffffffffffffffffffffffffffffffffffffff1614159050919050565b600660008373ffffffffffffffffffffffffffffffffffffffff1673ffffffffffffffffffffffffffffffffffffffff16815260200190815260200160002060008154809291906001019190505550816005600083815260200190815260200160002060006101000a81548173ffffffffffffffffffffffffffffffffffffffff021916908373ffffffffffffffffffffffffffffffffffffffff160217905550600073ffffffffffffffffffffffffffffffffffffffff168373ffffffffffffffffffffffffffffffffffffffff16141515611d9557600660008473ffffffffffffffffffffffffffffffffffffffff1673ffffffffffffffffffffffffffffffffffffffff16815260200190815260200160002060008154809291906001900391905055506007600082815260200190815260200160002060006101000a81549073ffffffffffffffffffffffffffffffffffffffff02191690555b7fddf252ad1be2c89b69c2b068fc378daa952ba7f163c4a11628f55a4df523b3ef838383604051808473ffffffffffffffffffffffffffffffffffffffff1673ffffffffffffffffffffffffffffffffffffffff1681526020018373ffffffffffffffffffffffffffffffffffffffff1673ffffffffffffffffffffffffffffffffffffffff168152602001828152602001935050505060405180910390a1505050565b611e416122b3565b60006060604051908101604052808881526020018581526020018481525091506001600c8054806001018281611e7791906122db565b916000526020600020906003020160008590919091506000820151816000019080519060200190611ea992919061230d565b50602082015181600101556040820151816002015550500390508063ffffffff1681141515611ed757600080fd5b7fb3b0cf861f168bcdb275c69da97b2543631552ba562628aa3c7317d4a6089ef281888860405180848152602001806020018373ffffffffffffffffffffffffffffffffffffffff1673ffffffffffffffffffffffffffffffffffffffff168152602001828103825284818151815260200191508051906020019080838360005b83811015611f73578082015181840152602081019050611f58565b50505050905090810190601f168015611fa05780820380516001836020036101000a031916815260200191505b5094505050505060405180910390a1846008600083815260200190815260200160002081905550611fd360008783611c37565b50505050505050565b6000806000841415611ff15760009150612010565b828402905082848281151561200257fe5b0414151561200c57fe5b8091505b5092915050565b600080828481151561202557fe5b0490508091505092915050565b600082821115151561204057fe5b818303905092915050565b6000806000806000809054906101000a900473ffffffffffffffffffffffffffffffffffffffff169350600160009054906101000a900473ffffffffffffffffffffffffffffffffffffffff1692508373ffffffffffffffffffffffffffffffffffffffff1663ab22a640600c878154811015156120c557fe5b9060005260206000209060030201600101546000604051602001526040518263ffffffff167c010000000000000000000000000000000000000000000000000000000002815260040180828152602001915050602060405180830381600087803b151561213157600080fd5b6102c65a03f1151561214257600080fd5b5050506040518051905091508273ffffffffffffffffffffffffffffffffffffffff1663337176cd600c8781548110151561217957fe5b9060005260206000209060030201600201546000604051602001526040518263ffffffff167c010000000000000000000000000000000000000000000000000000000002815260040180828152602001915050602060405180830381600087803b15156121e557600080fd5b6102c65a03f115156121f657600080fd5b5050506040518051905090508173ffffffffffffffffffffffffffffffffffffffff166108fc889081150290604051600060405180830381858888f19350505050151561224257600080fd5b8073ffffffffffffffffffffffffffffffffffffffff166108fc879081150290604051600060405180830381858888f19350505050151561228257600080fd5b50505050505050565b602060405190810160405280600081525090565b602060405190810160405280600081525090565b6060604051908101604052806122c761238d565b815260200160008152602001600081525090565b8154818355818115116123085760030281600302836000526020600020918201910161230791906123a1565b5b505050565b828054600181600116156101000203166002900490600052602060002090601f016020900481019282601f1061234e57805160ff191683800117855561237c565b8280016001018555821561237c579182015b8281111561237b578251825591602001919060010190612360565b5b50905061238991906123e0565b5090565b602060405190810160405280600081525090565b6123dd91905b808211156123d957600080820160006123c09190612405565b60018201600090556002820160009055506003016123a7565b5090565b90565b61240291905b808211156123fe5760008160009055506001016123e6565b5090565b90565b50805460018160011615610100020316600290046000825580601f1061242b575061244a565b601f01602090049060005260206000209081019061244991906123e0565b5b505600a165627a7a72305820b1bef3eb065fd31409a00cdf786f4b357602ff60cc8a1c76e5b0e57a552dc0030029",
  "source": "pragma solidity ^0.4.18; // solhint-disable-line\n\n\n\n/// @title Interface for contracts conforming to ERC-721: Non-Fungible Tokens\n/// @author Dieter Shirley <dete@axiomzen.co> (https://github.com/dete)\ncontract ERC721 {\n  // Required methods\n  function approve(address _to, uint256 _tokenId) public;\n  function balanceOf(address _owner) public view returns (uint256 balance);\n  function implementsERC721() public pure returns (bool);\n  function ownerOf(uint256 _tokenId) public view returns (address addr);\n  function takeOwnership(uint256 _tokenId) public;\n  function totalSupply() public view returns (uint256 total);\n  function transferFrom(address _from, address _to, uint256 _tokenId) public;\n  function transfer(address _to, uint256 _tokenId) public;\n\n  event Transfer(address indexed from, address indexed to, uint256 tokenId);\n  event Approval(address indexed owner, address indexed approved, uint256 tokenId);\n\n  // Optional\n  // function name() public view returns (string name);\n  // function symbol() public view returns (string symbol);\n  // function tokenOfOwnerByIndex(address _owner, uint256 _index) external view returns (uint256 tokenId);\n  // function tokenMetadata(uint256 _tokenId) public view returns (string infoUrl);\n}\n\n\ncontract PowZoneToken is ERC721 {\n\n  address cryptoVideoGames = 0x98069621Fd7daDb3f2D862b78a4f7D22eB08A80a; \n  address cryptoVideoGameItems = 0xd0E06483A2CDa9923bbD43e30D89A6BBe1A6F4A0;\n\n  /*** EVENTS ***/\n\n  /// @dev The Birth event is fired whenever a new pow comes into existence.\n  event Birth(uint256 tokenId, string name, address owner);\n\n  /// @dev The TokenSold event is fired whenever a token is sold.\n  event TokenSold(uint256 tokenId, uint256 oldPrice, uint256 newPrice, address prevOwner, address winner, string name);\n\n  /// @dev Transfer event as defined in current draft of ERC721. \n  ///  ownership is assigned, including births.\n  event Transfer(address from, address to, uint256 tokenId);\n\n  /*** CONSTANTS ***/\n\n  /// @notice Name and symbol of the non fungible token, as defined in ERC721.\n  string public constant NAME = \"CryptoKotakuPowZone\"; // solhint-disable-line\n  string public constant SYMBOL = \"PowZone\"; // solhint-disable-line\n\n  uint256 private startingPrice = 0.005 ether;\n  uint256 private firstStepLimit =  0.05 ether;\n  uint256 private secondStepLimit = 0.5 ether;\n\n  /*** STORAGE ***/\n\n  /// @dev A mapping from pow IDs to the address that owns them. All pows have\n  ///  some valid owner address.\n  mapping (uint256 => address) public powIndexToOwner;\n\n  // @dev A mapping from owner address to count of tokens that address owns.\n  //  Used internally inside balanceOf() to resolve ownership count.\n  mapping (address => uint256) private ownershipTokenCount;\n\n  /// @dev A mapping from PowIDs to an address that has been approved to call\n  ///  transferFrom(). Each Pow can only have one approved address for transfer\n  ///  at any time. A zero value means no approval is outstanding.\n  mapping (uint256 => address) public powIndexToApproved;\n\n  // @dev A mapping from PowIDs to the price of the token.\n  mapping (uint256 => uint256) private powIndexToPrice;\n\n  // The addresses of the accounts (or contracts) that can execute actions within each roles.\n  address public ceoAddress;\n  address public cooAddress;\n\n  uint256 public promoCreatedCount;\n\n  /*** DATATYPES ***/\n  struct Pow {\n    string name;\n    uint gameId;\n    uint gameItemId;\n  }\n\n  Pow[] private pows;\n\n  /*** ACCESS MODIFIERS ***/\n  /// @dev Access modifier for CEO-only functionality\n  modifier onlyCEO() {\n    require(msg.sender == ceoAddress);\n    _;\n  }\n\n  /// @dev Access modifier for COO-only functionality\n  modifier onlyCOO() {\n    require(msg.sender == cooAddress);\n    _;\n  }\n\n  /// Access modifier for contract owner only functionality\n  modifier onlyCLevel() {\n    require(\n      msg.sender == ceoAddress ||\n      msg.sender == cooAddress\n    );\n    _;\n  }\n\n  /*** CONSTRUCTOR ***/\n  function PowZoneToken() public {\n    ceoAddress = msg.sender;\n    cooAddress = msg.sender;\n  }\n\n  /*** PUBLIC FUNCTIONS ***/\n  /// @notice Grant another address the right to transfer token via takeOwnership() and transferFrom().\n  /// @param _to The address to be granted transfer approval. Pass address(0) to\n  ///  clear all approvals.\n  /// @param _tokenId The ID of the Token that can be transferred if this call succeeds.\n  /// @dev Required for ERC-721 compliance.\n  function approve(\n    address _to,\n    uint256 _tokenId\n  ) public {\n    // Caller must own token.\n    require(_owns(msg.sender, _tokenId));\n\n    powIndexToApproved[_tokenId] = _to;\n\n    Approval(msg.sender, _to, _tokenId);\n  }\n\n  /// For querying balance of a particular account\n  /// @param _owner The address for balance query\n  /// @dev Required for ERC-721 compliance.\n  function balanceOf(address _owner) public view returns (uint256 balance) {\n    return ownershipTokenCount[_owner];\n  }\n\n  /// @dev Creates a new promo Pow with the given name, with given _price and assignes it to an address.\n  function createPromoPow(address _owner, string _name, uint256 _price, uint _gameId, uint _gameItemId) public onlyCOO {\n\n    address powOwner = _owner;\n    if (powOwner == address(0)) {\n      powOwner = cooAddress;\n    }\n\n    if (_price <= 0) {\n      _price = startingPrice;\n    }\n\n    promoCreatedCount++;\n    _createPow(_name, powOwner, _price, _gameId, _gameItemId);\n  }\n\n  /// @dev Creates a new Pow with the given name.\n  function createContractPow(string _name, uint _gameId, uint _gameItemId) public onlyCOO {\n    _createPow(_name, address(this), startingPrice, _gameId, _gameItemId);\n  }\n\n  /// @notice Returns all the relevant information about a specific pow.\n  /// @param _tokenId The tokenId of the pow of interest.\n  function getPow(uint256 _tokenId) public view returns (\n    uint256 Id,\n    string powName,\n    uint256 sellingPrice,\n    address owner,\n    uint gameId,\n    uint gameItemId\n  ) {\n    Pow storage pow = pows[_tokenId];\n    Id = _tokenId;\n    powName = pow.name;\n    sellingPrice = powIndexToPrice[_tokenId];\n    owner = powIndexToOwner[_tokenId];\n    gameId = pow.gameId;\n    gameItemId = pow.gameItemId;\n  }\n\n  function implementsERC721() public pure returns (bool) {\n    return true;\n  }\n\n  /// @dev Required for ERC-721 compliance.\n  function name() public pure returns (string) {\n    return NAME;\n  }\n\n  /// For querying owner of token\n  /// @param _tokenId The tokenID for owner inquiry\n  /// @dev Required for ERC-721 compliance.\n  function ownerOf(uint256 _tokenId)\n    public\n    view\n    returns (address owner)\n  {\n    owner = powIndexToOwner[_tokenId];\n    require(owner != address(0));\n  }\n\n  function payout(address _to) public onlyCLevel {\n    _payout(_to);\n  }\n\n  // Allows someone to send ether and obtain the token\n  function purchase(uint256 _tokenId) public payable {\n    address oldOwner = powIndexToOwner[_tokenId];\n    address newOwner = msg.sender;\n\n    uint256 sellingPrice = powIndexToPrice[_tokenId];\n\n    // Making sure token owner is not sending to self\n    require(oldOwner != newOwner);\n\n    // Safety check to prevent against an unexpected 0x0 default.\n    require(_addressNotNull(newOwner));\n\n    // Making sure sent amount is greater than or equal to the sellingPrice\n    require(msg.value >= sellingPrice);\n\n    uint256 gameOwnerPayment = uint256(SafeMath.div(SafeMath.mul(sellingPrice, 5), 100));\n    uint256 gameItemOwnerPayment = uint256(SafeMath.div(SafeMath.mul(sellingPrice, 10), 100));\n    uint256 payment =  sellingPrice - gameOwnerPayment - gameOwnerPayment - gameItemOwnerPayment;\n    uint256 purchaseExcess = SafeMath.sub(msg.value,sellingPrice);\n\n    // Update prices\n    if (sellingPrice < firstStepLimit) {\n      // first stage\n      powIndexToPrice[_tokenId] = SafeMath.div(SafeMath.mul(sellingPrice, 200), 100);\n    } else if (sellingPrice < secondStepLimit) {\n      // second stage\n      powIndexToPrice[_tokenId] = SafeMath.div(SafeMath.mul(sellingPrice, 180), 100);\n    } else {\n      // third stage\n      powIndexToPrice[_tokenId] = SafeMath.div(SafeMath.mul(sellingPrice, 150), 100);\n    }\n\n    _transfer(oldOwner, newOwner, _tokenId);\n    TokenSold(_tokenId, sellingPrice, powIndexToPrice[_tokenId], oldOwner, newOwner, pows[_tokenId].name);\n\n    // Pay previous tokenOwner if owner is not contract\n    if (oldOwner != address(this)) {\n      oldOwner.transfer(payment); //(1-0.2)\n    }\n    \n    msg.sender.transfer(purchaseExcess);\n    _transferDivs(gameOwnerPayment, gameItemOwnerPayment, _tokenId);\n    \n  }\n\n  /// Divident distributions\n  function _transferDivs(uint256 _gameOwnerPayment, uint256 _gameItemOwnerPayment, uint256 _tokenId) private {\n    CryptoVideoGames gamesContract = CryptoVideoGames(cryptoVideoGames);\n    CryptoVideoGameItem gameItemContract = CryptoVideoGameItem(cryptoVideoGameItems);\n    address gameOwner = gamesContract.getVideoGameOwner(pows[_tokenId].gameId);\n    address gameItemOwner = gameItemContract.getVideoGameItemOwner(pows[_tokenId].gameItemId);\n    gameOwner.transfer(_gameOwnerPayment);\n    gameItemOwner.transfer(_gameItemOwnerPayment);\n  }\n\n  function priceOf(uint256 _tokenId) public view returns (uint256 price) {\n    return powIndexToPrice[_tokenId];\n  }\n\n  /// @dev Assigns a new address to act as the CEO. Only available to the current CEO.\n  /// @param _newCEO The address of the new CEO\n  function setCEO(address _newCEO) public onlyCEO {\n    require(_newCEO != address(0));\n\n    ceoAddress = _newCEO;\n  }\n\n  /// @dev Assigns a new address to act as the COO. Only available to the current COO.\n  /// @param _newCOO The address of the new COO\n  function setCOO(address _newCOO) public onlyCEO {\n    require(_newCOO != address(0));\n\n    cooAddress = _newCOO;\n  }\n\n  /// @dev Required for ERC-721 compliance.\n  function symbol() public pure returns (string) {\n    return SYMBOL;\n  }\n\n  /// @notice Allow pre-approved user to take ownership of a token\n  /// @param _tokenId The ID of the Token that can be transferred if this call succeeds.\n  /// @dev Required for ERC-721 compliance.\n  function takeOwnership(uint256 _tokenId) public {\n    address newOwner = msg.sender;\n    address oldOwner = powIndexToOwner[_tokenId];\n\n    // Safety check to prevent against an unexpected 0x0 default.\n    require(_addressNotNull(newOwner));\n\n    // Making sure transfer is approved\n    require(_approved(newOwner, _tokenId));\n\n    _transfer(oldOwner, newOwner, _tokenId);\n  }\n\n  /// @param _owner The owner whose pow tokens we are interested in.\n  /// @dev This method MUST NEVER be called by smart contract code. First, it's fairly\n  ///  expensive (it walks the entire pows array looking for pows belonging to owner),\n  ///  but it also returns a dynamic array, which is only supported for web3 calls, and\n  ///  not contract-to-contract calls.\n  function tokensOfOwner(address _owner) public view returns(uint256[] ownerTokens) {\n    uint256 tokenCount = balanceOf(_owner);\n    if (tokenCount == 0) {\n        // Return an empty array\n      return new uint256[](0);\n    } else {\n      uint256[] memory result = new uint256[](tokenCount);\n      uint256 totalPows = totalSupply();\n      uint256 resultIndex = 0;\n\n      uint256 powId;\n      for (powId = 0; powId <= totalPows; powId++) {\n        if (powIndexToOwner[powId] == _owner) {\n          result[resultIndex] = powId;\n          resultIndex++;\n        }\n      }\n      return result;\n    }\n  }\n\n  /// For querying totalSupply of token\n  /// @dev Required for ERC-721 compliance.\n  function totalSupply() public view returns (uint256 total) {\n    return pows.length;\n  }\n\n  /// Owner initates the transfer of the token to another account\n  /// @param _to The address for the token to be transferred to.\n  /// @param _tokenId The ID of the Token that can be transferred if this call succeeds.\n  /// @dev Required for ERC-721 compliance.\n  function transfer(\n    address _to,\n    uint256 _tokenId\n  ) public {\n    require(_owns(msg.sender, _tokenId));\n    require(_addressNotNull(_to));\n\n    _transfer(msg.sender, _to, _tokenId);\n  }\n\n  /// Third-party initiates transfer of token from address _from to address _to\n  /// @param _from The address for the token to be transferred from.\n  /// @param _to The address for the token to be transferred to.\n  /// @param _tokenId The ID of the Token that can be transferred if this call succeeds.\n  /// @dev Required for ERC-721 compliance.\n  function transferFrom(\n    address _from,\n    address _to,\n    uint256 _tokenId\n  ) public {\n    require(_owns(_from, _tokenId));\n    require(_approved(_to, _tokenId));\n    require(_addressNotNull(_to));\n\n    _transfer(_from, _to, _tokenId);\n  }\n\n  /*** PRIVATE FUNCTIONS ***/\n  /// Safety check on _to address to prevent against an unexpected 0x0 default.\n  function _addressNotNull(address _to) private pure returns (bool) {\n    return _to != address(0);\n  }\n\n  /// For checking approval of transfer for address _to\n  function _approved(address _to, uint256 _tokenId) private view returns (bool) {\n    return powIndexToApproved[_tokenId] == _to;\n  }\n\n  /// For creating Pow\n  function _createPow(string _name, address _owner, uint256 _price, uint _gameId, uint _gameItemId) private {\n    Pow memory _pow = Pow({\n      name: _name,\n      gameId: _gameId,\n      gameItemId: _gameItemId\n    });\n    uint256 newPowId = pows.push(_pow) - 1;\n\n    // It's probably never going to happen, 4 billion tokens are A LOT, but\n    // let's just be 100% sure we never let this happen.\n    require(newPowId == uint256(uint32(newPowId)));\n\n    Birth(newPowId, _name, _owner);\n\n    powIndexToPrice[newPowId] = _price;\n\n    // This will assign ownership, and also emit the Transfer event as\n    // per ERC721 draft\n    _transfer(address(0), _owner, newPowId);\n  }\n\n  /// Check for token ownership\n  function _owns(address claimant, uint256 _tokenId) private view returns (bool) {\n    return claimant == powIndexToOwner[_tokenId];\n  }\n\n  /// For paying out balance on contract\n  function _payout(address _to) private {\n    if (_to == address(0)) {\n      ceoAddress.transfer(this.balance);\n    } else {\n      _to.transfer(this.balance);\n    }\n  }\n\n  /*\n  This function can be used by the owner of a pow item to modify the price of its pow item.\n  */\n  function modifyPowPrice(uint _powId, uint256 _newPrice) public {\n      require(_newPrice > 0);\n      require(powIndexToOwner[_powId] == msg.sender);\n      powIndexToPrice[_powId] = _newPrice;\n  }\n\n  /// @dev Assigns ownership of a specific Pow to an address.\n  function _transfer(address _from, address _to, uint256 _tokenId) private {\n    // Since the number of pow is capped to 2^32 we can't overflow this\n    ownershipTokenCount[_to]++;\n    //transfer ownership\n    powIndexToOwner[_tokenId] = _to;\n\n    // When creating new pows _from is 0x0, but we can't account that address.\n    if (_from != address(0)) {\n      ownershipTokenCount[_from]--;\n      // clear any previously approved ownership exchange\n      delete powIndexToApproved[_tokenId];\n    }\n\n    // Emit the transfer event.\n    Transfer(_from, _to, _tokenId);\n  }\n\n}\nlibrary SafeMath {\n\n  /**\n  * @dev Multiplies two numbers, throws on overflow.\n  */\n  function mul(uint256 a, uint256 b) internal pure returns (uint256) {\n    if (a == 0) {\n      return 0;\n    }\n    uint256 c = a * b;\n    assert(c / a == b);\n    return c;\n  }\n\n  /**\n  * @dev Integer division of two numbers, truncating the quotient.\n  */\n  function div(uint256 a, uint256 b) internal pure returns (uint256) {\n    // assert(b > 0); // Solidity automatically throws when dividing by 0\n    uint256 c = a / b;\n    // assert(a == b * c + a % b); // There is no case in which this doesn't hold\n    return c;\n  }\n\n  /**\n  * @dev Substracts two numbers, throws on overflow (i.e. if subtrahend is greater than minuend).\n  */\n  function sub(uint256 a, uint256 b) internal pure returns (uint256) {\n    assert(b <= a);\n    return a - b;\n  }\n\n  /**\n  * @dev Adds two numbers, throws on overflow.\n  */\n  function add(uint256 a, uint256 b) internal pure returns (uint256) {\n    uint256 c = a + b;\n    assert(c >= a);\n    return c;\n  }\n\n}\n\n\ncontract CryptoVideoGames {\n    // This function will return only the owner address of a specific Video Game\n    function getVideoGameOwner(uint _videoGameId) public view returns(address) {\n    }\n    \n}\n\n\ncontract CryptoVideoGameItem {\n  function getVideoGameItemOwner(uint _videoGameItemId) public view returns(address) {\n    }\n}",
  "sourcePath": "/Users/itru/Desktop/cryptoworkspace/cryptovideogame/truffle/contracts/PowZoneToken.sol",
  "compiler": {
    "name": "solc",
    "version": "0.4.18+commit.9cf6e910.Emscripten.clang"
  },
  "schemaVersion": "1.0.1",
  "updatedAt": "2018-03-04T14:53:37.213Z"
}